{
  "contracts/test/Pair.sol": {
    "Pair": {
      "abi": [
        {
          "inputs": [
            {
              "internalType": "address",
              "name": "factory",
              "type": "address"
            },
            {
              "internalType": "address",
              "name": "tokenA",
              "type": "address"
            },
            {
              "internalType": "address",
              "name": "tokenB",
              "type": "address"
            }
          ],
          "name": "pairFor",
          "outputs": [
            {
              "internalType": "address",
              "name": "pair",
              "type": "address"
            }
          ],
          "stateMutability": "pure",
          "type": "function"
        },
        {
          "inputs": [
            {
              "internalType": "address",
              "name": "tokenA",
              "type": "address"
            },
            {
              "internalType": "address",
              "name": "tokenB",
              "type": "address"
            }
          ],
          "name": "sortTokens",
          "outputs": [
            {
              "internalType": "address",
              "name": "token0",
              "type": "address"
            },
            {
              "internalType": "address",
              "name": "token1",
              "type": "address"
            }
          ],
          "stateMutability": "pure",
          "type": "function"
        }
      ],
      "evm": {
        "bytecode": {
          "linkReferences": {},
          "object": "608060405234801561001057600080fd5b506134a5806100206000396000f3fe608060405234801561001057600080fd5b50600436106100365760003560e01c8063544caa561461003b5780636d91c0e2146100bf575b600080fd5b6100766004803603604081101561005157600080fd5b5073ffffffffffffffffffffffffffffffffffffffff8135811691602001351661012d565b604051808373ffffffffffffffffffffffffffffffffffffffff1681526020018273ffffffffffffffffffffffffffffffffffffffff1681526020019250505060405180910390f35b610104600480360360608110156100d557600080fd5b5073ffffffffffffffffffffffffffffffffffffffff8135811691602081013582169160409091013516610296565b6040805173ffffffffffffffffffffffffffffffffffffffff9092168252519081900360200190f35b6000808273ffffffffffffffffffffffffffffffffffffffff168473ffffffffffffffffffffffffffffffffffffffff1614156101cb57604080517f08c379a000000000000000000000000000000000000000000000000000000000815260206004820181905260248201527f445065784c6962726172793a204944454e544943414c5f414444524553534553604482015290519081900360640190fd5b8273ffffffffffffffffffffffffffffffffffffffff168473ffffffffffffffffffffffffffffffffffffffff1610610205578284610208565b83835b909250905073ffffffffffffffffffffffffffffffffffffffff821661028f57604080517f08c379a000000000000000000000000000000000000000000000000000000000815260206004820152601960248201527f445065784c6962726172793a205a45524f5f4144445245535300000000000000604482015290519081900360640190fd5b9250929050565b60008060006102a5858561012d565b91509150858282604051602001808373ffffffffffffffffffffffffffffffffffffffff1660601b81526014018273ffffffffffffffffffffffffffffffffffffffff1660601b815260140192505050604051602081830303815290604052805190602001206040518060200161031b9061043d565b6020820181038252601f19601f820116604052506040516020018082805190602001908083835b6020831061037f57805182527fffffffffffffffffffffffffffffffffffffffffffffffffffffffffffffffe09092019160209182019101610342565b6001836020036101000a0380198251168184511680821785525050505050509050019150506040516020818303038152906040528051906020012060405160200180807fff000000000000000000000000000000000000000000000000000000000000008152506001018473ffffffffffffffffffffffffffffffffffffffff1660601b815260140183815260200182815260200193505050506040516020818303038152906040528051906020012060001c925050509392505050565b6130258061044b8339019056fe60806040526001600d553480156200001657600080fd5b5060006200002362000145565b600080546001600160a01b0319166001600160a01b0383169081178255604051929350917f8be0079c531659141344cd1fd0a4f28419497f9722a3daafe3b4186f6b6457e0908290a35060004690507f8b73c3c69bb8fe3d512ecc4cf759cc79239f7b179b0ffacaa9a75d522b39400f6040518060600160405280602381526020016200300260239139805160209182012060408051808201825260018152603160f81b90840152805180840194909452838101919091527fc89efdaa54c0f20c7adf612882df0950f5a951637e0307cdcb4c672f298b8bc6606084015260808301939093523060a0808401919091528351808403909101815260c09092019092528051910120600455600680546001600160a01b0319163317905562000149565b3390565b612ea980620001596000396000f3fe608060405234801561001057600080fd5b50600436106101e55760003560e01c8063715018a61161010f578063ba9a7a56116100a2578063d505accf11610071578063d505accf14610626578063dd62ed3e14610684578063f2fde38b146106bf578063fff6cae9146106f2576101e5565b8063ba9a7a56146105db578063bc25cf77146105e3578063c45a015514610616578063d21220a71461061e576101e5565b806389afcb44116100de57806389afcb44146105465780638da5cb5b1461059257806395d89b411461059a578063a9059cbb146105a2576101e5565b8063715018a6146104fb5780637464fc3d146105035780637ecebe001461050b578063893d20e81461053e576101e5565b806330adf81f116101875780635909c0d5116101565780635909c0d5146104855780635a3d54931461048d5780636a6278421461049557806370a08231146104c8576101e5565b806330adf81f1461041c578063313ce567146104245780633644e51514610442578063485cc9551461044a576101e5565b8063095ea7b3116101c3578063095ea7b3146103415780630dfe16811461038e57806318160ddd146103bf57806323b872dd146103d9576101e5565b8063022c0d9f146101ea57806306fdde03146102855780630902f1ac14610302575b600080fd5b6102836004803603608081101561020057600080fd5b81359160208101359173ffffffffffffffffffffffffffffffffffffffff604083013516919081019060808101606082013564010000000081111561024457600080fd5b82018360208201111561025657600080fd5b8035906020019184600183028401116401000000008311171561027857600080fd5b5090925090506106fa565b005b61028d610dd0565b6040805160208082528351818301528351919283929083019185019080838360005b838110156102c75781810151838201526020016102af565b50505050905090810190601f1680156102f45780820380516001836020036101000a031916815260200191505b509250505060405180910390f35b61030a610dec565b604080516dffffffffffffffffffffffffffff948516815292909316602083015263ffffffff168183015290519081900360600190f35b61037a6004803603604081101561035757600080fd5b5073ffffffffffffffffffffffffffffffffffffffff8135169060200135610e41565b604080519115158252519081900360200190f35b610396610e58565b6040805173ffffffffffffffffffffffffffffffffffffffff9092168252519081900360200190f35b6103c7610e74565b60408051918252519081900360200190f35b61037a600480360360608110156103ef57600080fd5b5073ffffffffffffffffffffffffffffffffffffffff813581169160208101359091169060400135610e7a565b6103c7610f53565b61042c610f77565b6040805160ff9092168252519081900360200190f35b6103c7610f7c565b6102836004803603604081101561046057600080fd5b5073ffffffffffffffffffffffffffffffffffffffff81358116916020013516610f82565b6103c761105b565b6103c7611061565b6103c7600480360360208110156104ab57600080fd5b503573ffffffffffffffffffffffffffffffffffffffff16611067565b6103c7600480360360208110156104de57600080fd5b503573ffffffffffffffffffffffffffffffffffffffff166113fd565b61028361140f565b6103c7611526565b6103c76004803603602081101561052157600080fd5b503573ffffffffffffffffffffffffffffffffffffffff1661152c565b61039661153e565b6105796004803603602081101561055c57600080fd5b503573ffffffffffffffffffffffffffffffffffffffff1661154d565b6040805192835260208301919091528051918290030190f35b6103966119d8565b61028d6119f4565b61037a600480360360408110156105b857600080fd5b5073ffffffffffffffffffffffffffffffffffffffff8135169060200135611a2d565b6103c7611a3a565b610283600480360360208110156105f957600080fd5b503573ffffffffffffffffffffffffffffffffffffffff16611a40565b610396611c2d565b610396611c49565b610283600480360360e081101561063c57600080fd5b5073ffffffffffffffffffffffffffffffffffffffff813581169160208101359091169060408101359060608101359060ff6080820135169060a08101359060c00135611c65565b6103c76004803603604081101561069a57600080fd5b5073ffffffffffffffffffffffffffffffffffffffff81358116916020013516611f31565b610283600480360360208110156106d557600080fd5b503573ffffffffffffffffffffffffffffffffffffffff16611f4e565b6102836120ef565b600d5460011461076b57604080517f08c379a000000000000000000000000000000000000000000000000000000000815260206004820152600c60248201527f445045583a204c4f434b45440000000000000000000000000000000000000000604482015290519081900360640190fd5b6000600d558415158061077e5750600084115b6107e957604080517f08c379a000000000000000000000000000000000000000000000000000000000815260206004820181905260248201527f445045583a20494e53554646494349454e545f4f55545055545f414d4f554e54604482015290519081900360640190fd5b6000806107f4610dec565b5091509150816dffffffffffffffffffffffffffff16871080156108275750806dffffffffffffffffffffffffffff1686105b61089257604080517f08c379a000000000000000000000000000000000000000000000000000000000815260206004820152601c60248201527f445045583a20494e53554646494349454e545f4c495155494449545900000000604482015290519081900360640190fd5b600754600854600091829173ffffffffffffffffffffffffffffffffffffffff9182169190811690891682148015906108f757508073ffffffffffffffffffffffffffffffffffffffff168973ffffffffffffffffffffffffffffffffffffffff1614155b61096257604080517f08c379a000000000000000000000000000000000000000000000000000000000815260206004820152601060248201527f445045583a20494e56414c49445f544f00000000000000000000000000000000604482015290519081900360640190fd5b8a1561097357610973828a8d6122d5565b891561098457610984818a8c6122d5565b8615610a50578873ffffffffffffffffffffffffffffffffffffffff16635461e50a338d8d8c8c6040518663ffffffff1660e01b8152600401808673ffffffffffffffffffffffffffffffffffffffff168152602001858152602001848152602001806020018281038252848482818152602001925080828437600081840152601f19601f8201169050808301925050509650505050505050600060405180830381600087803b158015610a3757600080fd5b505af1158015610a4b573d6000803e3d6000fd5b505050505b604080517f70a08231000000000000000000000000000000000000000000000000000000008152306004820152905173ffffffffffffffffffffffffffffffffffffffff8416916370a08231916024808301926020929190829003018186803b158015610abc57600080fd5b505afa158015610ad0573d6000803e3d6000fd5b505050506040513d6020811015610ae657600080fd5b5051604080517f70a08231000000000000000000000000000000000000000000000000000000008152306004820152905191955073ffffffffffffffffffffffffffffffffffffffff8316916370a0823191602480820192602092909190829003018186803b158015610b5857600080fd5b505afa158015610b6c573d6000803e3d6000fd5b505050506040513d6020811015610b8257600080fd5b5051925060009150506dffffffffffffffffffffffffffff85168a90038311610bac576000610bc2565b89856dffffffffffffffffffffffffffff160383035b9050600089856dffffffffffffffffffffffffffff16038311610be6576000610bfc565b89856dffffffffffffffffffffffffffff160383035b90506000821180610c0d5750600081115b610c7857604080517f08c379a000000000000000000000000000000000000000000000000000000000815260206004820152601f60248201527f445045583a20494e53554646494349454e545f494e5055545f414d4f554e5400604482015290519081900360640190fd5b6000610c9a610c888460026124e2565b610c94876103e86124e2565b90612568565b90506000610cac610c888460026124e2565b9050610cd8620f4240610cd26dffffffffffffffffffffffffffff8b8116908b166124e2565b906124e2565b610ce283836124e2565b1015610d4f57604080517f08c379a000000000000000000000000000000000000000000000000000000000815260206004820152600760248201527f445045583a204b00000000000000000000000000000000000000000000000000604482015290519081900360640190fd5b5050610d5d848488886125da565b60408051838152602081018390528082018d9052606081018c9052905173ffffffffffffffffffffffffffffffffffffffff8b169133917fd78ad95fa46c994b6551d0da85fc275fe613ce37657fb8d5e3d130840159d8229181900360800190a350506001600d55505050505050505050565b604051806060016040528060238152602001612e516023913981565b6009546dffffffffffffffffffffffffffff808216926e0100000000000000000000000000008304909116917c0100000000000000000000000000000000000000000000000000000000900463ffffffff1690565b6000610e4e338484612890565b5060015b92915050565b60075473ffffffffffffffffffffffffffffffffffffffff1681565b60015481565b73ffffffffffffffffffffffffffffffffffffffff831660009081526003602090815260408083203384529091528120547fffffffffffffffffffffffffffffffffffffffffffffffffffffffffffffffff14610f3e5773ffffffffffffffffffffffffffffffffffffffff84166000908152600360209081526040808320338452909152902054610f0c9083612568565b73ffffffffffffffffffffffffffffffffffffffff851660009081526003602090815260408083203384529091529020555b610f498484846128ff565b5060019392505050565b7f6e71edae12b1b97f4d1f60370fef10105fa2faae0126114a169c64845d6126c981565b601281565b60045481565b60065473ffffffffffffffffffffffffffffffffffffffff16331461100857604080517f08c379a000000000000000000000000000000000000000000000000000000000815260206004820152600f60248201527f445045583a20464f5242494444454e0000000000000000000000000000000000604482015290519081900360640190fd5b6007805473ffffffffffffffffffffffffffffffffffffffff9384167fffffffffffffffffffffffff00000000000000000000000000000000000000009182161790915560088054929093169116179055565b600a5481565b600b5481565b6000600d546001146110da57604080517f08c379a000000000000000000000000000000000000000000000000000000000815260206004820152600c60248201527f445045583a204c4f434b45440000000000000000000000000000000000000000604482015290519081900360640190fd5b6000600d819055806110ea610dec565b50600754604080517f70a08231000000000000000000000000000000000000000000000000000000008152306004820152905193955091935060009273ffffffffffffffffffffffffffffffffffffffff909116916370a08231916024808301926020929190829003018186803b15801561116457600080fd5b505afa158015611178573d6000803e3d6000fd5b505050506040513d602081101561118e57600080fd5b5051600854604080517f70a08231000000000000000000000000000000000000000000000000000000008152306004820152905192935060009273ffffffffffffffffffffffffffffffffffffffff909216916370a0823191602480820192602092909190829003018186803b15801561120757600080fd5b505afa15801561121b573d6000803e3d6000fd5b505050506040513d602081101561123157600080fd5b505190506000611251836dffffffffffffffffffffffffffff8716612568565b9050600061126f836dffffffffffffffffffffffffffff8716612568565b9050600061127d87876129d4565b600154909150806112b4576112a06103e8610c9461129b87876124e2565b612b42565b98506112af60006103e8612b94565b611305565b6113026dffffffffffffffffffffffffffff89166112d286846124e2565b816112d957fe5b046dffffffffffffffffffffffffffff89166112f586856124e2565b816112fc57fe5b04612c39565b98505b6000891161135e576040517f08c379a0000000000000000000000000000000000000000000000000000000008152600401808060200182810382526023815260200180612e0b6023913960400191505060405180910390fd5b6113688a8a612b94565b61137486868a8a6125da565b81156113b0576009546113ac906dffffffffffffffffffffffffffff808216916e0100000000000000000000000000009004166124e2565b600c555b6040805185815260208101859052815133927f4c209b5fc8ad50758f13e2e1088ba56a560dff690a1c6fef26394f4c03821c4f928290030190a250506001600d5550949695505050505050565b60026020526000908152604090205481565b611417612c51565b73ffffffffffffffffffffffffffffffffffffffff166114356119d8565b73ffffffffffffffffffffffffffffffffffffffff16146114b757604080517f08c379a000000000000000000000000000000000000000000000000000000000815260206004820181905260248201527f4f776e61626c653a2063616c6c6572206973206e6f7420746865206f776e6572604482015290519081900360640190fd5b6000805460405173ffffffffffffffffffffffffffffffffffffffff909116907f8be0079c531659141344cd1fd0a4f28419497f9722a3daafe3b4186f6b6457e0908390a3600080547fffffffffffffffffffffffff0000000000000000000000000000000000000000169055565b600c5481565b60056020526000908152604090205481565b60006115486119d8565b905090565b600080600d546001146115c157604080517f08c379a000000000000000000000000000000000000000000000000000000000815260206004820152600c60248201527f445045583a204c4f434b45440000000000000000000000000000000000000000604482015290519081900360640190fd5b6000600d819055806115d1610dec565b50600754600854604080517f70a08231000000000000000000000000000000000000000000000000000000008152306004820152905194965092945073ffffffffffffffffffffffffffffffffffffffff9182169391169160009184916370a08231916024808301926020929190829003018186803b15801561165357600080fd5b505afa158015611667573d6000803e3d6000fd5b505050506040513d602081101561167d57600080fd5b5051604080517f70a08231000000000000000000000000000000000000000000000000000000008152306004820152905191925060009173ffffffffffffffffffffffffffffffffffffffff8516916370a08231916024808301926020929190829003018186803b1580156116f157600080fd5b505afa158015611705573d6000803e3d6000fd5b505050506040513d602081101561171b57600080fd5b50513060009081526002602052604081205491925061173a88886129d4565b6001549091508061174b84876124e2565b8161175257fe5b049a508061176084866124e2565b8161176757fe5b04995060008b11801561177a575060008a115b6117cf576040517f08c379a0000000000000000000000000000000000000000000000000000000008152600401808060200182810382526023815260200180612e2e6023913960400191505060405180910390fd5b6117d93084612c55565b6117e4878d8d6122d5565b6117ef868d8c6122d5565b604080517f70a08231000000000000000000000000000000000000000000000000000000008152306004820152905173ffffffffffffffffffffffffffffffffffffffff8916916370a08231916024808301926020929190829003018186803b15801561185b57600080fd5b505afa15801561186f573d6000803e3d6000fd5b505050506040513d602081101561188557600080fd5b5051604080517f70a08231000000000000000000000000000000000000000000000000000000008152306004820152905191965073ffffffffffffffffffffffffffffffffffffffff8816916370a0823191602480820192602092909190829003018186803b1580156118f757600080fd5b505afa15801561190b573d6000803e3d6000fd5b505050506040513d602081101561192157600080fd5b5051935061193185858b8b6125da565b811561196d57600954611969906dffffffffffffffffffffffffffff808216916e0100000000000000000000000000009004166124e2565b600c555b604080518c8152602081018c9052815173ffffffffffffffffffffffffffffffffffffffff8f169233927fdccd412f0b1252819cb1fd330b93224ca42612892bb3f4f789976e6d81936496929081900390910190a35050505050505050506001600d81905550915091565b60005473ffffffffffffffffffffffffffffffffffffffff1690565b6040518060400160405280600781526020017f445045582d4c500000000000000000000000000000000000000000000000000081525081565b6000610e4e3384846128ff565b6103e881565b600d54600114611ab157604080517f08c379a000000000000000000000000000000000000000000000000000000000815260206004820152600c60248201527f445045583a204c4f434b45440000000000000000000000000000000000000000604482015290519081900360640190fd5b6000600d55600754600854600954604080517f70a08231000000000000000000000000000000000000000000000000000000008152306004820152905173ffffffffffffffffffffffffffffffffffffffff9485169490931692611b879285928792611b82926dffffffffffffffffffffffffffff169185916370a0823191602480820192602092909190829003018186803b158015611b5057600080fd5b505afa158015611b64573d6000803e3d6000fd5b505050506040513d6020811015611b7a57600080fd5b505190612568565b6122d5565b611c238184611b826009600e9054906101000a90046dffffffffffffffffffffffffffff166dffffffffffffffffffffffffffff168573ffffffffffffffffffffffffffffffffffffffff166370a08231306040518263ffffffff1660e01b8152600401808273ffffffffffffffffffffffffffffffffffffffff16815260200191505060206040518083038186803b158015611b5057600080fd5b50506001600d5550565b60065473ffffffffffffffffffffffffffffffffffffffff1681565b60085473ffffffffffffffffffffffffffffffffffffffff1681565b42841015611cd457604080517f08c379a000000000000000000000000000000000000000000000000000000000815260206004820152601260248201527f556e697377617056323a20455850495245440000000000000000000000000000604482015290519081900360640190fd5b60045473ffffffffffffffffffffffffffffffffffffffff80891660008181526005602090815260408083208054600180820190925582517f6e71edae12b1b97f4d1f60370fef10105fa2faae0126114a169c64845d6126c98186015280840196909652958d166060860152608085018c905260a085019590955260c08085018b90528151808603909101815260e0850182528051908301207f19010000000000000000000000000000000000000000000000000000000000006101008601526101028501969096526101228085019690965280518085039096018652610142840180825286519683019690962095839052610162840180825286905260ff89166101828501526101a284018890526101c28401879052519193926101e2808201937fffffffffffffffffffffffffffffffffffffffffffffffffffffffffffffffe081019281900390910190855afa158015611e35573d6000803e3d6000fd5b50506040517fffffffffffffffffffffffffffffffffffffffffffffffffffffffffffffffe0015191505073ffffffffffffffffffffffffffffffffffffffff811615801590611eb057508873ffffffffffffffffffffffffffffffffffffffff168173ffffffffffffffffffffffffffffffffffffffff16145b611f1b57604080517f08c379a000000000000000000000000000000000000000000000000000000000815260206004820152601c60248201527f556e697377617056323a20494e56414c49445f5349474e415455524500000000604482015290519081900360640190fd5b611f26898989612890565b505050505050505050565b600360209081526000928352604080842090915290825290205481565b611f56612c51565b73ffffffffffffffffffffffffffffffffffffffff16611f746119d8565b73ffffffffffffffffffffffffffffffffffffffff1614611ff657604080517f08c379a000000000000000000000000000000000000000000000000000000000815260206004820181905260248201527f4f776e61626c653a2063616c6c6572206973206e6f7420746865206f776e6572604482015290519081900360640190fd5b73ffffffffffffffffffffffffffffffffffffffff8116612062576040517f08c379a0000000000000000000000000000000000000000000000000000000008152600401808060200182810382526026815260200180612de56026913960400191505060405180910390fd5b6000805460405173ffffffffffffffffffffffffffffffffffffffff808516939216917f8be0079c531659141344cd1fd0a4f28419497f9722a3daafe3b4186f6b6457e091a3600080547fffffffffffffffffffffffff00000000000000000000000000000000000000001673ffffffffffffffffffffffffffffffffffffffff92909216919091179055565b600d5460011461216057604080517f08c379a000000000000000000000000000000000000000000000000000000000815260206004820152600c60248201527f445045583a204c4f434b45440000000000000000000000000000000000000000604482015290519081900360640190fd5b6000600d55600754604080517f70a0823100000000000000000000000000000000000000000000000000000000815230600482015290516122ce9273ffffffffffffffffffffffffffffffffffffffff16916370a08231916024808301926020929190829003018186803b1580156121d757600080fd5b505afa1580156121eb573d6000803e3d6000fd5b505050506040513d602081101561220157600080fd5b5051600854604080517f70a08231000000000000000000000000000000000000000000000000000000008152306004820152905173ffffffffffffffffffffffffffffffffffffffff909216916370a0823191602480820192602092909190829003018186803b15801561227457600080fd5b505afa158015612288573d6000803e3d6000fd5b505050506040513d602081101561229e57600080fd5b50516009546dffffffffffffffffffffffffffff808216916e0100000000000000000000000000009004166125da565b6001600d55565b604080518082018252601981527f7472616e7366657228616464726573732c75696e743235362900000000000000602091820152815173ffffffffffffffffffffffffffffffffffffffff85811660248301526044808301869052845180840390910181526064909201845291810180517bffffffffffffffffffffffffffffffffffffffffffffffffffffffff167fa9059cbb000000000000000000000000000000000000000000000000000000001781529251815160009460609489169392918291908083835b602083106123db57805182527fffffffffffffffffffffffffffffffffffffffffffffffffffffffffffffffe0909201916020918201910161239e565b6001836020036101000a0380198251168184511680821785525050505050509050019150506000604051808303816000865af19150503d806000811461243d576040519150601f19603f3d011682016040523d82523d6000602084013e612442565b606091505b5091509150818015612470575080511580612470575080806020019051602081101561246d57600080fd5b50515b6124db57604080517f08c379a000000000000000000000000000000000000000000000000000000000815260206004820152601560248201527f445045583a205452414e534645525f4641494c45440000000000000000000000604482015290519081900360640190fd5b5050505050565b60008115806124fd575050808202828282816124fa57fe5b04145b610e5257604080517f08c379a000000000000000000000000000000000000000000000000000000000815260206004820152601460248201527f64732d6d6174682d6d756c2d6f766572666c6f77000000000000000000000000604482015290519081900360640190fd5b80820382811115610e5257604080517f08c379a000000000000000000000000000000000000000000000000000000000815260206004820152601560248201527f64732d6d6174682d7375622d756e646572666c6f770000000000000000000000604482015290519081900360640190fd5b6dffffffffffffffffffffffffffff841180159061260657506dffffffffffffffffffffffffffff8311155b61267157604080517f08c379a000000000000000000000000000000000000000000000000000000000815260206004820152600e60248201527f445045583a204f564552464c4f57000000000000000000000000000000000000604482015290519081900360640190fd5b60095463ffffffff428116917c0100000000000000000000000000000000000000000000000000000000900481168203908116158015906126c157506dffffffffffffffffffffffffffff841615155b80156126dc57506dffffffffffffffffffffffffffff831615155b15612786578063ffffffff16612719856126f586612d0d565b7bffffffffffffffffffffffffffffffffffffffffffffffffffffffff1690612d31565b600a80547bffffffffffffffffffffffffffffffffffffffffffffffffffffffff929092169290920201905563ffffffff8116612759846126f587612d0d565b600b80547bffffffffffffffffffffffffffffffffffffffffffffffffffffffff92909216929092020190555b600980547fffffffffffffffffffffffffffffffffffff0000000000000000000000000000166dffffffffffffffffffffffffffff888116919091177fffffffff0000000000000000000000000000ffffffffffffffffffffffffffff166e0100000000000000000000000000008883168102919091177bffffffffffffffffffffffffffffffffffffffffffffffffffffffff167c010000000000000000000000000000000000000000000000000000000063ffffffff871602179283905560408051848416815291909304909116602082015281517f1c411e9a96e071241c2f21f7726b17ae89e3cab4c78be50e062b03a9fffbbad1929181900390910190a1505050505050565b73ffffffffffffffffffffffffffffffffffffffff808416600081815260036020908152604080832094871680845294825291829020859055815185815291517f8c5be1e5ebec7d5bd14f71427d1e84f3dd0314c0f7b2291e5b200ac8c7c3b9259281900390910190a3505050565b73ffffffffffffffffffffffffffffffffffffffff831660009081526002602052604090205461292f9082612568565b73ffffffffffffffffffffffffffffffffffffffff808516600090815260026020526040808220939093559084168152205461296b9082612d72565b73ffffffffffffffffffffffffffffffffffffffff80841660008181526002602090815260409182902094909455805185815290519193928716927fddf252ad1be2c89b69c2b068fc378daa952ba7f163c4a11628f55a4df523b3ef92918290030190a3505050565b600080600660009054906101000a900473ffffffffffffffffffffffffffffffffffffffff1673ffffffffffffffffffffffffffffffffffffffff1663017e7e586040518163ffffffff1660e01b815260040160206040518083038186803b158015612a3f57600080fd5b505afa158015612a53573d6000803e3d6000fd5b505050506040513d6020811015612a6957600080fd5b5051600c5473ffffffffffffffffffffffffffffffffffffffff8216158015945091925090612b2e578015612b29576000612aba61129b6dffffffffffffffffffffffffffff8881169088166124e2565b90506000612ac783612b42565b905080821115612b26576000612ae9612ae08484612568565b600154906124e2565b90506000612b0283612afc8660036124e2565b90612d72565b90506000818381612b0f57fe5b0490508015612b2257612b228782612b94565b5050505b50505b612b3a565b8015612b3a576000600c555b505092915050565b60006003821115612b85575080600160028204015b81811015612b7f57809150600281828581612b6e57fe5b040181612b7757fe5b049050612b57565b50612b8f565b8115612b8f575060015b919050565b600154612ba19082612d72565b60015573ffffffffffffffffffffffffffffffffffffffff8216600090815260026020526040902054612bd49082612d72565b73ffffffffffffffffffffffffffffffffffffffff831660008181526002602090815260408083209490945583518581529351929391927fddf252ad1be2c89b69c2b068fc378daa952ba7f163c4a11628f55a4df523b3ef9281900390910190a35050565b6000818310612c485781612c4a565b825b9392505050565b3390565b73ffffffffffffffffffffffffffffffffffffffff8216600090815260026020526040902054612c859082612568565b73ffffffffffffffffffffffffffffffffffffffff8316600090815260026020526040902055600154612cb89082612568565b60015560408051828152905160009173ffffffffffffffffffffffffffffffffffffffff8516917fddf252ad1be2c89b69c2b068fc378daa952ba7f163c4a11628f55a4df523b3ef9181900360200190a35050565b6dffffffffffffffffffffffffffff166e0100000000000000000000000000000290565b60006dffffffffffffffffffffffffffff82167bffffffffffffffffffffffffffffffffffffffffffffffffffffffff841681612d6a57fe5b049392505050565b80820182811015610e5257604080517f08c379a000000000000000000000000000000000000000000000000000000000815260206004820152601460248201527f64732d6d6174682d6164642d6f766572666c6f77000000000000000000000000604482015290519081900360640190fdfe4f776e61626c653a206e6577206f776e657220697320746865207a65726f2061646472657373445045583a20494e53554646494349454e545f4c49515549444954595f4d494e544544445045583a20494e53554646494349454e545f4c49515549444954595f4255524e4544446563656e7472616c697a656420506173736976652045786368616e67652050616972a264697066735822122055fb67f2e0e3efe4d97acfb854db10c7e7192ab8ee58bf853c2a36d01625949064736f6c63430007040033446563656e7472616c697a656420506173736976652045786368616e67652050616972a26469706673582212203a0895d487608f629aac41bc1b03e118c74dd8bc09ef6fba2053585e423e417864736f6c63430007040033",
          "opcodes": "PUSH1 0x80 PUSH1 0x40 MSTORE CALLVALUE DUP1 ISZERO PUSH2 0x10 JUMPI PUSH1 0x0 DUP1 REVERT JUMPDEST POP PUSH2 0x34A5 DUP1 PUSH2 0x20 PUSH1 0x0 CODECOPY PUSH1 0x0 RETURN INVALID PUSH1 0x80 PUSH1 0x40 MSTORE CALLVALUE DUP1 ISZERO PUSH2 0x10 JUMPI PUSH1 0x0 DUP1 REVERT JUMPDEST POP PUSH1 0x4 CALLDATASIZE LT PUSH2 0x36 JUMPI PUSH1 0x0 CALLDATALOAD PUSH1 0xE0 SHR DUP1 PUSH4 0x544CAA56 EQ PUSH2 0x3B JUMPI DUP1 PUSH4 0x6D91C0E2 EQ PUSH2 0xBF JUMPI JUMPDEST PUSH1 0x0 DUP1 REVERT JUMPDEST PUSH2 0x76 PUSH1 0x4 DUP1 CALLDATASIZE SUB PUSH1 0x40 DUP2 LT ISZERO PUSH2 0x51 JUMPI PUSH1 0x0 DUP1 REVERT JUMPDEST POP PUSH20 0xFFFFFFFFFFFFFFFFFFFFFFFFFFFFFFFFFFFFFFFF DUP2 CALLDATALOAD DUP2 AND SWAP2 PUSH1 0x20 ADD CALLDATALOAD AND PUSH2 0x12D JUMP JUMPDEST PUSH1 0x40 MLOAD DUP1 DUP4 PUSH20 0xFFFFFFFFFFFFFFFFFFFFFFFFFFFFFFFFFFFFFFFF AND DUP2 MSTORE PUSH1 0x20 ADD DUP3 PUSH20 0xFFFFFFFFFFFFFFFFFFFFFFFFFFFFFFFFFFFFFFFF AND DUP2 MSTORE PUSH1 0x20 ADD SWAP3 POP POP POP PUSH1 0x40 MLOAD DUP1 SWAP2 SUB SWAP1 RETURN JUMPDEST PUSH2 0x104 PUSH1 0x4 DUP1 CALLDATASIZE SUB PUSH1 0x60 DUP2 LT ISZERO PUSH2 0xD5 JUMPI PUSH1 0x0 DUP1 REVERT JUMPDEST POP PUSH20 0xFFFFFFFFFFFFFFFFFFFFFFFFFFFFFFFFFFFFFFFF DUP2 CALLDATALOAD DUP2 AND SWAP2 PUSH1 0x20 DUP2 ADD CALLDATALOAD DUP3 AND SWAP2 PUSH1 0x40 SWAP1 SWAP2 ADD CALLDATALOAD AND PUSH2 0x296 JUMP JUMPDEST PUSH1 0x40 DUP1 MLOAD PUSH20 0xFFFFFFFFFFFFFFFFFFFFFFFFFFFFFFFFFFFFFFFF SWAP1 SWAP3 AND DUP3 MSTORE MLOAD SWAP1 DUP2 SWAP1 SUB PUSH1 0x20 ADD SWAP1 RETURN JUMPDEST PUSH1 0x0 DUP1 DUP3 PUSH20 0xFFFFFFFFFFFFFFFFFFFFFFFFFFFFFFFFFFFFFFFF AND DUP5 PUSH20 0xFFFFFFFFFFFFFFFFFFFFFFFFFFFFFFFFFFFFFFFF AND EQ ISZERO PUSH2 0x1CB JUMPI PUSH1 0x40 DUP1 MLOAD PUSH32 0x8C379A000000000000000000000000000000000000000000000000000000000 DUP2 MSTORE PUSH1 0x20 PUSH1 0x4 DUP3 ADD DUP2 SWAP1 MSTORE PUSH1 0x24 DUP3 ADD MSTORE PUSH32 0x445065784C6962726172793A204944454E544943414C5F414444524553534553 PUSH1 0x44 DUP3 ADD MSTORE SWAP1 MLOAD SWAP1 DUP2 SWAP1 SUB PUSH1 0x64 ADD SWAP1 REVERT JUMPDEST DUP3 PUSH20 0xFFFFFFFFFFFFFFFFFFFFFFFFFFFFFFFFFFFFFFFF AND DUP5 PUSH20 0xFFFFFFFFFFFFFFFFFFFFFFFFFFFFFFFFFFFFFFFF AND LT PUSH2 0x205 JUMPI DUP3 DUP5 PUSH2 0x208 JUMP JUMPDEST DUP4 DUP4 JUMPDEST SWAP1 SWAP3 POP SWAP1 POP PUSH20 0xFFFFFFFFFFFFFFFFFFFFFFFFFFFFFFFFFFFFFFFF DUP3 AND PUSH2 0x28F JUMPI PUSH1 0x40 DUP1 MLOAD PUSH32 0x8C379A000000000000000000000000000000000000000000000000000000000 DUP2 MSTORE PUSH1 0x20 PUSH1 0x4 DUP3 ADD MSTORE PUSH1 0x19 PUSH1 0x24 DUP3 ADD MSTORE PUSH32 0x445065784C6962726172793A205A45524F5F4144445245535300000000000000 PUSH1 0x44 DUP3 ADD MSTORE SWAP1 MLOAD SWAP1 DUP2 SWAP1 SUB PUSH1 0x64 ADD SWAP1 REVERT JUMPDEST SWAP3 POP SWAP3 SWAP1 POP JUMP JUMPDEST PUSH1 0x0 DUP1 PUSH1 0x0 PUSH2 0x2A5 DUP6 DUP6 PUSH2 0x12D JUMP JUMPDEST SWAP2 POP SWAP2 POP DUP6 DUP3 DUP3 PUSH1 0x40 MLOAD PUSH1 0x20 ADD DUP1 DUP4 PUSH20 0xFFFFFFFFFFFFFFFFFFFFFFFFFFFFFFFFFFFFFFFF AND PUSH1 0x60 SHL DUP2 MSTORE PUSH1 0x14 ADD DUP3 PUSH20 0xFFFFFFFFFFFFFFFFFFFFFFFFFFFFFFFFFFFFFFFF AND PUSH1 0x60 SHL DUP2 MSTORE PUSH1 0x14 ADD SWAP3 POP POP POP PUSH1 0x40 MLOAD PUSH1 0x20 DUP2 DUP4 SUB SUB DUP2 MSTORE SWAP1 PUSH1 0x40 MSTORE DUP1 MLOAD SWAP1 PUSH1 0x20 ADD KECCAK256 PUSH1 0x40 MLOAD DUP1 PUSH1 0x20 ADD PUSH2 0x31B SWAP1 PUSH2 0x43D JUMP JUMPDEST PUSH1 0x20 DUP3 ADD DUP2 SUB DUP3 MSTORE PUSH1 0x1F NOT PUSH1 0x1F DUP3 ADD AND PUSH1 0x40 MSTORE POP PUSH1 0x40 MLOAD PUSH1 0x20 ADD DUP1 DUP3 DUP1 MLOAD SWAP1 PUSH1 0x20 ADD SWAP1 DUP1 DUP4 DUP4 JUMPDEST PUSH1 0x20 DUP4 LT PUSH2 0x37F JUMPI DUP1 MLOAD DUP3 MSTORE PUSH32 0xFFFFFFFFFFFFFFFFFFFFFFFFFFFFFFFFFFFFFFFFFFFFFFFFFFFFFFFFFFFFFFE0 SWAP1 SWAP3 ADD SWAP2 PUSH1 0x20 SWAP2 DUP3 ADD SWAP2 ADD PUSH2 0x342 JUMP JUMPDEST PUSH1 0x1 DUP4 PUSH1 0x20 SUB PUSH2 0x100 EXP SUB DUP1 NOT DUP3 MLOAD AND DUP2 DUP5 MLOAD AND DUP1 DUP3 OR DUP6 MSTORE POP POP POP POP POP POP SWAP1 POP ADD SWAP2 POP POP PUSH1 0x40 MLOAD PUSH1 0x20 DUP2 DUP4 SUB SUB DUP2 MSTORE SWAP1 PUSH1 0x40 MSTORE DUP1 MLOAD SWAP1 PUSH1 0x20 ADD KECCAK256 PUSH1 0x40 MLOAD PUSH1 0x20 ADD DUP1 DUP1 PUSH32 0xFF00000000000000000000000000000000000000000000000000000000000000 DUP2 MSTORE POP PUSH1 0x1 ADD DUP5 PUSH20 0xFFFFFFFFFFFFFFFFFFFFFFFFFFFFFFFFFFFFFFFF AND PUSH1 0x60 SHL DUP2 MSTORE PUSH1 0x14 ADD DUP4 DUP2 MSTORE PUSH1 0x20 ADD DUP3 DUP2 MSTORE PUSH1 0x20 ADD SWAP4 POP POP POP POP PUSH1 0x40 MLOAD PUSH1 0x20 DUP2 DUP4 SUB SUB DUP2 MSTORE SWAP1 PUSH1 0x40 MSTORE DUP1 MLOAD SWAP1 PUSH1 0x20 ADD KECCAK256 PUSH1 0x0 SHR SWAP3 POP POP POP SWAP4 SWAP3 POP POP POP JUMP JUMPDEST PUSH2 0x3025 DUP1 PUSH2 0x44B DUP4 CODECOPY ADD SWAP1 JUMP INVALID PUSH1 0x80 PUSH1 0x40 MSTORE PUSH1 0x1 PUSH1 0xD SSTORE CALLVALUE DUP1 ISZERO PUSH3 0x16 JUMPI PUSH1 0x0 DUP1 REVERT JUMPDEST POP PUSH1 0x0 PUSH3 0x23 PUSH3 0x145 JUMP JUMPDEST PUSH1 0x0 DUP1 SLOAD PUSH1 0x1 PUSH1 0x1 PUSH1 0xA0 SHL SUB NOT AND PUSH1 0x1 PUSH1 0x1 PUSH1 0xA0 SHL SUB DUP4 AND SWAP1 DUP2 OR DUP3 SSTORE PUSH1 0x40 MLOAD SWAP3 SWAP4 POP SWAP2 PUSH32 0x8BE0079C531659141344CD1FD0A4F28419497F9722A3DAAFE3B4186F6B6457E0 SWAP1 DUP3 SWAP1 LOG3 POP PUSH1 0x0 CHAINID SWAP1 POP PUSH32 0x8B73C3C69BB8FE3D512ECC4CF759CC79239F7B179B0FFACAA9A75D522B39400F PUSH1 0x40 MLOAD DUP1 PUSH1 0x60 ADD PUSH1 0x40 MSTORE DUP1 PUSH1 0x23 DUP2 MSTORE PUSH1 0x20 ADD PUSH3 0x3002 PUSH1 0x23 SWAP2 CODECOPY DUP1 MLOAD PUSH1 0x20 SWAP2 DUP3 ADD KECCAK256 PUSH1 0x40 DUP1 MLOAD DUP1 DUP3 ADD DUP3 MSTORE PUSH1 0x1 DUP2 MSTORE PUSH1 0x31 PUSH1 0xF8 SHL SWAP1 DUP5 ADD MSTORE DUP1 MLOAD DUP1 DUP5 ADD SWAP5 SWAP1 SWAP5 MSTORE DUP4 DUP2 ADD SWAP2 SWAP1 SWAP2 MSTORE PUSH32 0xC89EFDAA54C0F20C7ADF612882DF0950F5A951637E0307CDCB4C672F298B8BC6 PUSH1 0x60 DUP5 ADD MSTORE PUSH1 0x80 DUP4 ADD SWAP4 SWAP1 SWAP4 MSTORE ADDRESS PUSH1 0xA0 DUP1 DUP5 ADD SWAP2 SWAP1 SWAP2 MSTORE DUP4 MLOAD DUP1 DUP5 SUB SWAP1 SWAP2 ADD DUP2 MSTORE PUSH1 0xC0 SWAP1 SWAP3 ADD SWAP1 SWAP3 MSTORE DUP1 MLOAD SWAP2 ADD KECCAK256 PUSH1 0x4 SSTORE PUSH1 0x6 DUP1 SLOAD PUSH1 0x1 PUSH1 0x1 PUSH1 0xA0 SHL SUB NOT AND CALLER OR SWAP1 SSTORE PUSH3 0x149 JUMP JUMPDEST CALLER SWAP1 JUMP JUMPDEST PUSH2 0x2EA9 DUP1 PUSH3 0x159 PUSH1 0x0 CODECOPY PUSH1 0x0 RETURN INVALID PUSH1 0x80 PUSH1 0x40 MSTORE CALLVALUE DUP1 ISZERO PUSH2 0x10 JUMPI PUSH1 0x0 DUP1 REVERT JUMPDEST POP PUSH1 0x4 CALLDATASIZE LT PUSH2 0x1E5 JUMPI PUSH1 0x0 CALLDATALOAD PUSH1 0xE0 SHR DUP1 PUSH4 0x715018A6 GT PUSH2 0x10F JUMPI DUP1 PUSH4 0xBA9A7A56 GT PUSH2 0xA2 JUMPI DUP1 PUSH4 0xD505ACCF GT PUSH2 0x71 JUMPI DUP1 PUSH4 0xD505ACCF EQ PUSH2 0x626 JUMPI DUP1 PUSH4 0xDD62ED3E EQ PUSH2 0x684 JUMPI DUP1 PUSH4 0xF2FDE38B EQ PUSH2 0x6BF JUMPI DUP1 PUSH4 0xFFF6CAE9 EQ PUSH2 0x6F2 JUMPI PUSH2 0x1E5 JUMP JUMPDEST DUP1 PUSH4 0xBA9A7A56 EQ PUSH2 0x5DB JUMPI DUP1 PUSH4 0xBC25CF77 EQ PUSH2 0x5E3 JUMPI DUP1 PUSH4 0xC45A0155 EQ PUSH2 0x616 JUMPI DUP1 PUSH4 0xD21220A7 EQ PUSH2 0x61E JUMPI PUSH2 0x1E5 JUMP JUMPDEST DUP1 PUSH4 0x89AFCB44 GT PUSH2 0xDE JUMPI DUP1 PUSH4 0x89AFCB44 EQ PUSH2 0x546 JUMPI DUP1 PUSH4 0x8DA5CB5B EQ PUSH2 0x592 JUMPI DUP1 PUSH4 0x95D89B41 EQ PUSH2 0x59A JUMPI DUP1 PUSH4 0xA9059CBB EQ PUSH2 0x5A2 JUMPI PUSH2 0x1E5 JUMP JUMPDEST DUP1 PUSH4 0x715018A6 EQ PUSH2 0x4FB JUMPI DUP1 PUSH4 0x7464FC3D EQ PUSH2 0x503 JUMPI DUP1 PUSH4 0x7ECEBE00 EQ PUSH2 0x50B JUMPI DUP1 PUSH4 0x893D20E8 EQ PUSH2 0x53E JUMPI PUSH2 0x1E5 JUMP JUMPDEST DUP1 PUSH4 0x30ADF81F GT PUSH2 0x187 JUMPI DUP1 PUSH4 0x5909C0D5 GT PUSH2 0x156 JUMPI DUP1 PUSH4 0x5909C0D5 EQ PUSH2 0x485 JUMPI DUP1 PUSH4 0x5A3D5493 EQ PUSH2 0x48D JUMPI DUP1 PUSH4 0x6A627842 EQ PUSH2 0x495 JUMPI DUP1 PUSH4 0x70A08231 EQ PUSH2 0x4C8 JUMPI PUSH2 0x1E5 JUMP JUMPDEST DUP1 PUSH4 0x30ADF81F EQ PUSH2 0x41C JUMPI DUP1 PUSH4 0x313CE567 EQ PUSH2 0x424 JUMPI DUP1 PUSH4 0x3644E515 EQ PUSH2 0x442 JUMPI DUP1 PUSH4 0x485CC955 EQ PUSH2 0x44A JUMPI PUSH2 0x1E5 JUMP JUMPDEST DUP1 PUSH4 0x95EA7B3 GT PUSH2 0x1C3 JUMPI DUP1 PUSH4 0x95EA7B3 EQ PUSH2 0x341 JUMPI DUP1 PUSH4 0xDFE1681 EQ PUSH2 0x38E JUMPI DUP1 PUSH4 0x18160DDD EQ PUSH2 0x3BF JUMPI DUP1 PUSH4 0x23B872DD EQ PUSH2 0x3D9 JUMPI PUSH2 0x1E5 JUMP JUMPDEST DUP1 PUSH4 0x22C0D9F EQ PUSH2 0x1EA JUMPI DUP1 PUSH4 0x6FDDE03 EQ PUSH2 0x285 JUMPI DUP1 PUSH4 0x902F1AC EQ PUSH2 0x302 JUMPI JUMPDEST PUSH1 0x0 DUP1 REVERT JUMPDEST PUSH2 0x283 PUSH1 0x4 DUP1 CALLDATASIZE SUB PUSH1 0x80 DUP2 LT ISZERO PUSH2 0x200 JUMPI PUSH1 0x0 DUP1 REVERT JUMPDEST DUP2 CALLDATALOAD SWAP2 PUSH1 0x20 DUP2 ADD CALLDATALOAD SWAP2 PUSH20 0xFFFFFFFFFFFFFFFFFFFFFFFFFFFFFFFFFFFFFFFF PUSH1 0x40 DUP4 ADD CALLDATALOAD AND SWAP2 SWAP1 DUP2 ADD SWAP1 PUSH1 0x80 DUP2 ADD PUSH1 0x60 DUP3 ADD CALLDATALOAD PUSH5 0x100000000 DUP2 GT ISZERO PUSH2 0x244 JUMPI PUSH1 0x0 DUP1 REVERT JUMPDEST DUP3 ADD DUP4 PUSH1 0x20 DUP3 ADD GT ISZERO PUSH2 0x256 JUMPI PUSH1 0x0 DUP1 REVERT JUMPDEST DUP1 CALLDATALOAD SWAP1 PUSH1 0x20 ADD SWAP2 DUP5 PUSH1 0x1 DUP4 MUL DUP5 ADD GT PUSH5 0x100000000 DUP4 GT OR ISZERO PUSH2 0x278 JUMPI PUSH1 0x0 DUP1 REVERT JUMPDEST POP SWAP1 SWAP3 POP SWAP1 POP PUSH2 0x6FA JUMP JUMPDEST STOP JUMPDEST PUSH2 0x28D PUSH2 0xDD0 JUMP JUMPDEST PUSH1 0x40 DUP1 MLOAD PUSH1 0x20 DUP1 DUP3 MSTORE DUP4 MLOAD DUP2 DUP4 ADD MSTORE DUP4 MLOAD SWAP2 SWAP3 DUP4 SWAP3 SWAP1 DUP4 ADD SWAP2 DUP6 ADD SWAP1 DUP1 DUP4 DUP4 PUSH1 0x0 JUMPDEST DUP4 DUP2 LT ISZERO PUSH2 0x2C7 JUMPI DUP2 DUP2 ADD MLOAD DUP4 DUP3 ADD MSTORE PUSH1 0x20 ADD PUSH2 0x2AF JUMP JUMPDEST POP POP POP POP SWAP1 POP SWAP1 DUP2 ADD SWAP1 PUSH1 0x1F AND DUP1 ISZERO PUSH2 0x2F4 JUMPI DUP1 DUP3 SUB DUP1 MLOAD PUSH1 0x1 DUP4 PUSH1 0x20 SUB PUSH2 0x100 EXP SUB NOT AND DUP2 MSTORE PUSH1 0x20 ADD SWAP2 POP JUMPDEST POP SWAP3 POP POP POP PUSH1 0x40 MLOAD DUP1 SWAP2 SUB SWAP1 RETURN JUMPDEST PUSH2 0x30A PUSH2 0xDEC JUMP JUMPDEST PUSH1 0x40 DUP1 MLOAD PUSH14 0xFFFFFFFFFFFFFFFFFFFFFFFFFFFF SWAP5 DUP6 AND DUP2 MSTORE SWAP3 SWAP1 SWAP4 AND PUSH1 0x20 DUP4 ADD MSTORE PUSH4 0xFFFFFFFF AND DUP2 DUP4 ADD MSTORE SWAP1 MLOAD SWAP1 DUP2 SWAP1 SUB PUSH1 0x60 ADD SWAP1 RETURN JUMPDEST PUSH2 0x37A PUSH1 0x4 DUP1 CALLDATASIZE SUB PUSH1 0x40 DUP2 LT ISZERO PUSH2 0x357 JUMPI PUSH1 0x0 DUP1 REVERT JUMPDEST POP PUSH20 0xFFFFFFFFFFFFFFFFFFFFFFFFFFFFFFFFFFFFFFFF DUP2 CALLDATALOAD AND SWAP1 PUSH1 0x20 ADD CALLDATALOAD PUSH2 0xE41 JUMP JUMPDEST PUSH1 0x40 DUP1 MLOAD SWAP2 ISZERO ISZERO DUP3 MSTORE MLOAD SWAP1 DUP2 SWAP1 SUB PUSH1 0x20 ADD SWAP1 RETURN JUMPDEST PUSH2 0x396 PUSH2 0xE58 JUMP JUMPDEST PUSH1 0x40 DUP1 MLOAD PUSH20 0xFFFFFFFFFFFFFFFFFFFFFFFFFFFFFFFFFFFFFFFF SWAP1 SWAP3 AND DUP3 MSTORE MLOAD SWAP1 DUP2 SWAP1 SUB PUSH1 0x20 ADD SWAP1 RETURN JUMPDEST PUSH2 0x3C7 PUSH2 0xE74 JUMP JUMPDEST PUSH1 0x40 DUP1 MLOAD SWAP2 DUP3 MSTORE MLOAD SWAP1 DUP2 SWAP1 SUB PUSH1 0x20 ADD SWAP1 RETURN JUMPDEST PUSH2 0x37A PUSH1 0x4 DUP1 CALLDATASIZE SUB PUSH1 0x60 DUP2 LT ISZERO PUSH2 0x3EF JUMPI PUSH1 0x0 DUP1 REVERT JUMPDEST POP PUSH20 0xFFFFFFFFFFFFFFFFFFFFFFFFFFFFFFFFFFFFFFFF DUP2 CALLDATALOAD DUP2 AND SWAP2 PUSH1 0x20 DUP2 ADD CALLDATALOAD SWAP1 SWAP2 AND SWAP1 PUSH1 0x40 ADD CALLDATALOAD PUSH2 0xE7A JUMP JUMPDEST PUSH2 0x3C7 PUSH2 0xF53 JUMP JUMPDEST PUSH2 0x42C PUSH2 0xF77 JUMP JUMPDEST PUSH1 0x40 DUP1 MLOAD PUSH1 0xFF SWAP1 SWAP3 AND DUP3 MSTORE MLOAD SWAP1 DUP2 SWAP1 SUB PUSH1 0x20 ADD SWAP1 RETURN JUMPDEST PUSH2 0x3C7 PUSH2 0xF7C JUMP JUMPDEST PUSH2 0x283 PUSH1 0x4 DUP1 CALLDATASIZE SUB PUSH1 0x40 DUP2 LT ISZERO PUSH2 0x460 JUMPI PUSH1 0x0 DUP1 REVERT JUMPDEST POP PUSH20 0xFFFFFFFFFFFFFFFFFFFFFFFFFFFFFFFFFFFFFFFF DUP2 CALLDATALOAD DUP2 AND SWAP2 PUSH1 0x20 ADD CALLDATALOAD AND PUSH2 0xF82 JUMP JUMPDEST PUSH2 0x3C7 PUSH2 0x105B JUMP JUMPDEST PUSH2 0x3C7 PUSH2 0x1061 JUMP JUMPDEST PUSH2 0x3C7 PUSH1 0x4 DUP1 CALLDATASIZE SUB PUSH1 0x20 DUP2 LT ISZERO PUSH2 0x4AB JUMPI PUSH1 0x0 DUP1 REVERT JUMPDEST POP CALLDATALOAD PUSH20 0xFFFFFFFFFFFFFFFFFFFFFFFFFFFFFFFFFFFFFFFF AND PUSH2 0x1067 JUMP JUMPDEST PUSH2 0x3C7 PUSH1 0x4 DUP1 CALLDATASIZE SUB PUSH1 0x20 DUP2 LT ISZERO PUSH2 0x4DE JUMPI PUSH1 0x0 DUP1 REVERT JUMPDEST POP CALLDATALOAD PUSH20 0xFFFFFFFFFFFFFFFFFFFFFFFFFFFFFFFFFFFFFFFF AND PUSH2 0x13FD JUMP JUMPDEST PUSH2 0x283 PUSH2 0x140F JUMP JUMPDEST PUSH2 0x3C7 PUSH2 0x1526 JUMP JUMPDEST PUSH2 0x3C7 PUSH1 0x4 DUP1 CALLDATASIZE SUB PUSH1 0x20 DUP2 LT ISZERO PUSH2 0x521 JUMPI PUSH1 0x0 DUP1 REVERT JUMPDEST POP CALLDATALOAD PUSH20 0xFFFFFFFFFFFFFFFFFFFFFFFFFFFFFFFFFFFFFFFF AND PUSH2 0x152C JUMP JUMPDEST PUSH2 0x396 PUSH2 0x153E JUMP JUMPDEST PUSH2 0x579 PUSH1 0x4 DUP1 CALLDATASIZE SUB PUSH1 0x20 DUP2 LT ISZERO PUSH2 0x55C JUMPI PUSH1 0x0 DUP1 REVERT JUMPDEST POP CALLDATALOAD PUSH20 0xFFFFFFFFFFFFFFFFFFFFFFFFFFFFFFFFFFFFFFFF AND PUSH2 0x154D JUMP JUMPDEST PUSH1 0x40 DUP1 MLOAD SWAP3 DUP4 MSTORE PUSH1 0x20 DUP4 ADD SWAP2 SWAP1 SWAP2 MSTORE DUP1 MLOAD SWAP2 DUP3 SWAP1 SUB ADD SWAP1 RETURN JUMPDEST PUSH2 0x396 PUSH2 0x19D8 JUMP JUMPDEST PUSH2 0x28D PUSH2 0x19F4 JUMP JUMPDEST PUSH2 0x37A PUSH1 0x4 DUP1 CALLDATASIZE SUB PUSH1 0x40 DUP2 LT ISZERO PUSH2 0x5B8 JUMPI PUSH1 0x0 DUP1 REVERT JUMPDEST POP PUSH20 0xFFFFFFFFFFFFFFFFFFFFFFFFFFFFFFFFFFFFFFFF DUP2 CALLDATALOAD AND SWAP1 PUSH1 0x20 ADD CALLDATALOAD PUSH2 0x1A2D JUMP JUMPDEST PUSH2 0x3C7 PUSH2 0x1A3A JUMP JUMPDEST PUSH2 0x283 PUSH1 0x4 DUP1 CALLDATASIZE SUB PUSH1 0x20 DUP2 LT ISZERO PUSH2 0x5F9 JUMPI PUSH1 0x0 DUP1 REVERT JUMPDEST POP CALLDATALOAD PUSH20 0xFFFFFFFFFFFFFFFFFFFFFFFFFFFFFFFFFFFFFFFF AND PUSH2 0x1A40 JUMP JUMPDEST PUSH2 0x396 PUSH2 0x1C2D JUMP JUMPDEST PUSH2 0x396 PUSH2 0x1C49 JUMP JUMPDEST PUSH2 0x283 PUSH1 0x4 DUP1 CALLDATASIZE SUB PUSH1 0xE0 DUP2 LT ISZERO PUSH2 0x63C JUMPI PUSH1 0x0 DUP1 REVERT JUMPDEST POP PUSH20 0xFFFFFFFFFFFFFFFFFFFFFFFFFFFFFFFFFFFFFFFF DUP2 CALLDATALOAD DUP2 AND SWAP2 PUSH1 0x20 DUP2 ADD CALLDATALOAD SWAP1 SWAP2 AND SWAP1 PUSH1 0x40 DUP2 ADD CALLDATALOAD SWAP1 PUSH1 0x60 DUP2 ADD CALLDATALOAD SWAP1 PUSH1 0xFF PUSH1 0x80 DUP3 ADD CALLDATALOAD AND SWAP1 PUSH1 0xA0 DUP2 ADD CALLDATALOAD SWAP1 PUSH1 0xC0 ADD CALLDATALOAD PUSH2 0x1C65 JUMP JUMPDEST PUSH2 0x3C7 PUSH1 0x4 DUP1 CALLDATASIZE SUB PUSH1 0x40 DUP2 LT ISZERO PUSH2 0x69A JUMPI PUSH1 0x0 DUP1 REVERT JUMPDEST POP PUSH20 0xFFFFFFFFFFFFFFFFFFFFFFFFFFFFFFFFFFFFFFFF DUP2 CALLDATALOAD DUP2 AND SWAP2 PUSH1 0x20 ADD CALLDATALOAD AND PUSH2 0x1F31 JUMP JUMPDEST PUSH2 0x283 PUSH1 0x4 DUP1 CALLDATASIZE SUB PUSH1 0x20 DUP2 LT ISZERO PUSH2 0x6D5 JUMPI PUSH1 0x0 DUP1 REVERT JUMPDEST POP CALLDATALOAD PUSH20 0xFFFFFFFFFFFFFFFFFFFFFFFFFFFFFFFFFFFFFFFF AND PUSH2 0x1F4E JUMP JUMPDEST PUSH2 0x283 PUSH2 0x20EF JUMP JUMPDEST PUSH1 0xD SLOAD PUSH1 0x1 EQ PUSH2 0x76B JUMPI PUSH1 0x40 DUP1 MLOAD PUSH32 0x8C379A000000000000000000000000000000000000000000000000000000000 DUP2 MSTORE PUSH1 0x20 PUSH1 0x4 DUP3 ADD MSTORE PUSH1 0xC PUSH1 0x24 DUP3 ADD MSTORE PUSH32 0x445045583A204C4F434B45440000000000000000000000000000000000000000 PUSH1 0x44 DUP3 ADD MSTORE SWAP1 MLOAD SWAP1 DUP2 SWAP1 SUB PUSH1 0x64 ADD SWAP1 REVERT JUMPDEST PUSH1 0x0 PUSH1 0xD SSTORE DUP5 ISZERO ISZERO DUP1 PUSH2 0x77E JUMPI POP PUSH1 0x0 DUP5 GT JUMPDEST PUSH2 0x7E9 JUMPI PUSH1 0x40 DUP1 MLOAD PUSH32 0x8C379A000000000000000000000000000000000000000000000000000000000 DUP2 MSTORE PUSH1 0x20 PUSH1 0x4 DUP3 ADD DUP2 SWAP1 MSTORE PUSH1 0x24 DUP3 ADD MSTORE PUSH32 0x445045583A20494E53554646494349454E545F4F55545055545F414D4F554E54 PUSH1 0x44 DUP3 ADD MSTORE SWAP1 MLOAD SWAP1 DUP2 SWAP1 SUB PUSH1 0x64 ADD SWAP1 REVERT JUMPDEST PUSH1 0x0 DUP1 PUSH2 0x7F4 PUSH2 0xDEC JUMP JUMPDEST POP SWAP2 POP SWAP2 POP DUP2 PUSH14 0xFFFFFFFFFFFFFFFFFFFFFFFFFFFF AND DUP8 LT DUP1 ISZERO PUSH2 0x827 JUMPI POP DUP1 PUSH14 0xFFFFFFFFFFFFFFFFFFFFFFFFFFFF AND DUP7 LT JUMPDEST PUSH2 0x892 JUMPI PUSH1 0x40 DUP1 MLOAD PUSH32 0x8C379A000000000000000000000000000000000000000000000000000000000 DUP2 MSTORE PUSH1 0x20 PUSH1 0x4 DUP3 ADD MSTORE PUSH1 0x1C PUSH1 0x24 DUP3 ADD MSTORE PUSH32 0x445045583A20494E53554646494349454E545F4C495155494449545900000000 PUSH1 0x44 DUP3 ADD MSTORE SWAP1 MLOAD SWAP1 DUP2 SWAP1 SUB PUSH1 0x64 ADD SWAP1 REVERT JUMPDEST PUSH1 0x7 SLOAD PUSH1 0x8 SLOAD PUSH1 0x0 SWAP2 DUP3 SWAP2 PUSH20 0xFFFFFFFFFFFFFFFFFFFFFFFFFFFFFFFFFFFFFFFF SWAP2 DUP3 AND SWAP2 SWAP1 DUP2 AND SWAP1 DUP10 AND DUP3 EQ DUP1 ISZERO SWAP1 PUSH2 0x8F7 JUMPI POP DUP1 PUSH20 0xFFFFFFFFFFFFFFFFFFFFFFFFFFFFFFFFFFFFFFFF AND DUP10 PUSH20 0xFFFFFFFFFFFFFFFFFFFFFFFFFFFFFFFFFFFFFFFF AND EQ ISZERO JUMPDEST PUSH2 0x962 JUMPI PUSH1 0x40 DUP1 MLOAD PUSH32 0x8C379A000000000000000000000000000000000000000000000000000000000 DUP2 MSTORE PUSH1 0x20 PUSH1 0x4 DUP3 ADD MSTORE PUSH1 0x10 PUSH1 0x24 DUP3 ADD MSTORE PUSH32 0x445045583A20494E56414C49445F544F00000000000000000000000000000000 PUSH1 0x44 DUP3 ADD MSTORE SWAP1 MLOAD SWAP1 DUP2 SWAP1 SUB PUSH1 0x64 ADD SWAP1 REVERT JUMPDEST DUP11 ISZERO PUSH2 0x973 JUMPI PUSH2 0x973 DUP3 DUP11 DUP14 PUSH2 0x22D5 JUMP JUMPDEST DUP10 ISZERO PUSH2 0x984 JUMPI PUSH2 0x984 DUP2 DUP11 DUP13 PUSH2 0x22D5 JUMP JUMPDEST DUP7 ISZERO PUSH2 0xA50 JUMPI DUP9 PUSH20 0xFFFFFFFFFFFFFFFFFFFFFFFFFFFFFFFFFFFFFFFF AND PUSH4 0x5461E50A CALLER DUP14 DUP14 DUP13 DUP13 PUSH1 0x40 MLOAD DUP7 PUSH4 0xFFFFFFFF AND PUSH1 0xE0 SHL DUP2 MSTORE PUSH1 0x4 ADD DUP1 DUP7 PUSH20 0xFFFFFFFFFFFFFFFFFFFFFFFFFFFFFFFFFFFFFFFF AND DUP2 MSTORE PUSH1 0x20 ADD DUP6 DUP2 MSTORE PUSH1 0x20 ADD DUP5 DUP2 MSTORE PUSH1 0x20 ADD DUP1 PUSH1 0x20 ADD DUP3 DUP2 SUB DUP3 MSTORE DUP5 DUP5 DUP3 DUP2 DUP2 MSTORE PUSH1 0x20 ADD SWAP3 POP DUP1 DUP3 DUP5 CALLDATACOPY PUSH1 0x0 DUP2 DUP5 ADD MSTORE PUSH1 0x1F NOT PUSH1 0x1F DUP3 ADD AND SWAP1 POP DUP1 DUP4 ADD SWAP3 POP POP POP SWAP7 POP POP POP POP POP POP POP PUSH1 0x0 PUSH1 0x40 MLOAD DUP1 DUP4 SUB DUP2 PUSH1 0x0 DUP8 DUP1 EXTCODESIZE ISZERO DUP1 ISZERO PUSH2 0xA37 JUMPI PUSH1 0x0 DUP1 REVERT JUMPDEST POP GAS CALL ISZERO DUP1 ISZERO PUSH2 0xA4B JUMPI RETURNDATASIZE PUSH1 0x0 DUP1 RETURNDATACOPY RETURNDATASIZE PUSH1 0x0 REVERT JUMPDEST POP POP POP POP JUMPDEST PUSH1 0x40 DUP1 MLOAD PUSH32 0x70A0823100000000000000000000000000000000000000000000000000000000 DUP2 MSTORE ADDRESS PUSH1 0x4 DUP3 ADD MSTORE SWAP1 MLOAD PUSH20 0xFFFFFFFFFFFFFFFFFFFFFFFFFFFFFFFFFFFFFFFF DUP5 AND SWAP2 PUSH4 0x70A08231 SWAP2 PUSH1 0x24 DUP1 DUP4 ADD SWAP3 PUSH1 0x20 SWAP3 SWAP2 SWAP1 DUP3 SWAP1 SUB ADD DUP2 DUP7 DUP1 EXTCODESIZE ISZERO DUP1 ISZERO PUSH2 0xABC JUMPI PUSH1 0x0 DUP1 REVERT JUMPDEST POP GAS STATICCALL ISZERO DUP1 ISZERO PUSH2 0xAD0 JUMPI RETURNDATASIZE PUSH1 0x0 DUP1 RETURNDATACOPY RETURNDATASIZE PUSH1 0x0 REVERT JUMPDEST POP POP POP POP PUSH1 0x40 MLOAD RETURNDATASIZE PUSH1 0x20 DUP2 LT ISZERO PUSH2 0xAE6 JUMPI PUSH1 0x0 DUP1 REVERT JUMPDEST POP MLOAD PUSH1 0x40 DUP1 MLOAD PUSH32 0x70A0823100000000000000000000000000000000000000000000000000000000 DUP2 MSTORE ADDRESS PUSH1 0x4 DUP3 ADD MSTORE SWAP1 MLOAD SWAP2 SWAP6 POP PUSH20 0xFFFFFFFFFFFFFFFFFFFFFFFFFFFFFFFFFFFFFFFF DUP4 AND SWAP2 PUSH4 0x70A08231 SWAP2 PUSH1 0x24 DUP1 DUP3 ADD SWAP3 PUSH1 0x20 SWAP3 SWAP1 SWAP2 SWAP1 DUP3 SWAP1 SUB ADD DUP2 DUP7 DUP1 EXTCODESIZE ISZERO DUP1 ISZERO PUSH2 0xB58 JUMPI PUSH1 0x0 DUP1 REVERT JUMPDEST POP GAS STATICCALL ISZERO DUP1 ISZERO PUSH2 0xB6C JUMPI RETURNDATASIZE PUSH1 0x0 DUP1 RETURNDATACOPY RETURNDATASIZE PUSH1 0x0 REVERT JUMPDEST POP POP POP POP PUSH1 0x40 MLOAD RETURNDATASIZE PUSH1 0x20 DUP2 LT ISZERO PUSH2 0xB82 JUMPI PUSH1 0x0 DUP1 REVERT JUMPDEST POP MLOAD SWAP3 POP PUSH1 0x0 SWAP2 POP POP PUSH14 0xFFFFFFFFFFFFFFFFFFFFFFFFFFFF DUP6 AND DUP11 SWAP1 SUB DUP4 GT PUSH2 0xBAC JUMPI PUSH1 0x0 PUSH2 0xBC2 JUMP JUMPDEST DUP10 DUP6 PUSH14 0xFFFFFFFFFFFFFFFFFFFFFFFFFFFF AND SUB DUP4 SUB JUMPDEST SWAP1 POP PUSH1 0x0 DUP10 DUP6 PUSH14 0xFFFFFFFFFFFFFFFFFFFFFFFFFFFF AND SUB DUP4 GT PUSH2 0xBE6 JUMPI PUSH1 0x0 PUSH2 0xBFC JUMP JUMPDEST DUP10 DUP6 PUSH14 0xFFFFFFFFFFFFFFFFFFFFFFFFFFFF AND SUB DUP4 SUB JUMPDEST SWAP1 POP PUSH1 0x0 DUP3 GT DUP1 PUSH2 0xC0D JUMPI POP PUSH1 0x0 DUP2 GT JUMPDEST PUSH2 0xC78 JUMPI PUSH1 0x40 DUP1 MLOAD PUSH32 0x8C379A000000000000000000000000000000000000000000000000000000000 DUP2 MSTORE PUSH1 0x20 PUSH1 0x4 DUP3 ADD MSTORE PUSH1 0x1F PUSH1 0x24 DUP3 ADD MSTORE PUSH32 0x445045583A20494E53554646494349454E545F494E5055545F414D4F554E5400 PUSH1 0x44 DUP3 ADD MSTORE SWAP1 MLOAD SWAP1 DUP2 SWAP1 SUB PUSH1 0x64 ADD SWAP1 REVERT JUMPDEST PUSH1 0x0 PUSH2 0xC9A PUSH2 0xC88 DUP5 PUSH1 0x2 PUSH2 0x24E2 JUMP JUMPDEST PUSH2 0xC94 DUP8 PUSH2 0x3E8 PUSH2 0x24E2 JUMP JUMPDEST SWAP1 PUSH2 0x2568 JUMP JUMPDEST SWAP1 POP PUSH1 0x0 PUSH2 0xCAC PUSH2 0xC88 DUP5 PUSH1 0x2 PUSH2 0x24E2 JUMP JUMPDEST SWAP1 POP PUSH2 0xCD8 PUSH3 0xF4240 PUSH2 0xCD2 PUSH14 0xFFFFFFFFFFFFFFFFFFFFFFFFFFFF DUP12 DUP2 AND SWAP1 DUP12 AND PUSH2 0x24E2 JUMP JUMPDEST SWAP1 PUSH2 0x24E2 JUMP JUMPDEST PUSH2 0xCE2 DUP4 DUP4 PUSH2 0x24E2 JUMP JUMPDEST LT ISZERO PUSH2 0xD4F JUMPI PUSH1 0x40 DUP1 MLOAD PUSH32 0x8C379A000000000000000000000000000000000000000000000000000000000 DUP2 MSTORE PUSH1 0x20 PUSH1 0x4 DUP3 ADD MSTORE PUSH1 0x7 PUSH1 0x24 DUP3 ADD MSTORE PUSH32 0x445045583A204B00000000000000000000000000000000000000000000000000 PUSH1 0x44 DUP3 ADD MSTORE SWAP1 MLOAD SWAP1 DUP2 SWAP1 SUB PUSH1 0x64 ADD SWAP1 REVERT JUMPDEST POP POP PUSH2 0xD5D DUP5 DUP5 DUP9 DUP9 PUSH2 0x25DA JUMP JUMPDEST PUSH1 0x40 DUP1 MLOAD DUP4 DUP2 MSTORE PUSH1 0x20 DUP2 ADD DUP4 SWAP1 MSTORE DUP1 DUP3 ADD DUP14 SWAP1 MSTORE PUSH1 0x60 DUP2 ADD DUP13 SWAP1 MSTORE SWAP1 MLOAD PUSH20 0xFFFFFFFFFFFFFFFFFFFFFFFFFFFFFFFFFFFFFFFF DUP12 AND SWAP2 CALLER SWAP2 PUSH32 0xD78AD95FA46C994B6551D0DA85FC275FE613CE37657FB8D5E3D130840159D822 SWAP2 DUP2 SWAP1 SUB PUSH1 0x80 ADD SWAP1 LOG3 POP POP PUSH1 0x1 PUSH1 0xD SSTORE POP POP POP POP POP POP POP POP POP JUMP JUMPDEST PUSH1 0x40 MLOAD DUP1 PUSH1 0x60 ADD PUSH1 0x40 MSTORE DUP1 PUSH1 0x23 DUP2 MSTORE PUSH1 0x20 ADD PUSH2 0x2E51 PUSH1 0x23 SWAP2 CODECOPY DUP2 JUMP JUMPDEST PUSH1 0x9 SLOAD PUSH14 0xFFFFFFFFFFFFFFFFFFFFFFFFFFFF DUP1 DUP3 AND SWAP3 PUSH15 0x10000000000000000000000000000 DUP4 DIV SWAP1 SWAP2 AND SWAP2 PUSH29 0x100000000000000000000000000000000000000000000000000000000 SWAP1 DIV PUSH4 0xFFFFFFFF AND SWAP1 JUMP JUMPDEST PUSH1 0x0 PUSH2 0xE4E CALLER DUP5 DUP5 PUSH2 0x2890 JUMP JUMPDEST POP PUSH1 0x1 JUMPDEST SWAP3 SWAP2 POP POP JUMP JUMPDEST PUSH1 0x7 SLOAD PUSH20 0xFFFFFFFFFFFFFFFFFFFFFFFFFFFFFFFFFFFFFFFF AND DUP2 JUMP JUMPDEST PUSH1 0x1 SLOAD DUP2 JUMP JUMPDEST PUSH20 0xFFFFFFFFFFFFFFFFFFFFFFFFFFFFFFFFFFFFFFFF DUP4 AND PUSH1 0x0 SWAP1 DUP2 MSTORE PUSH1 0x3 PUSH1 0x20 SWAP1 DUP2 MSTORE PUSH1 0x40 DUP1 DUP4 KECCAK256 CALLER DUP5 MSTORE SWAP1 SWAP2 MSTORE DUP2 KECCAK256 SLOAD PUSH32 0xFFFFFFFFFFFFFFFFFFFFFFFFFFFFFFFFFFFFFFFFFFFFFFFFFFFFFFFFFFFFFFFF EQ PUSH2 0xF3E JUMPI PUSH20 0xFFFFFFFFFFFFFFFFFFFFFFFFFFFFFFFFFFFFFFFF DUP5 AND PUSH1 0x0 SWAP1 DUP2 MSTORE PUSH1 0x3 PUSH1 0x20 SWAP1 DUP2 MSTORE PUSH1 0x40 DUP1 DUP4 KECCAK256 CALLER DUP5 MSTORE SWAP1 SWAP2 MSTORE SWAP1 KECCAK256 SLOAD PUSH2 0xF0C SWAP1 DUP4 PUSH2 0x2568 JUMP JUMPDEST PUSH20 0xFFFFFFFFFFFFFFFFFFFFFFFFFFFFFFFFFFFFFFFF DUP6 AND PUSH1 0x0 SWAP1 DUP2 MSTORE PUSH1 0x3 PUSH1 0x20 SWAP1 DUP2 MSTORE PUSH1 0x40 DUP1 DUP4 KECCAK256 CALLER DUP5 MSTORE SWAP1 SWAP2 MSTORE SWAP1 KECCAK256 SSTORE JUMPDEST PUSH2 0xF49 DUP5 DUP5 DUP5 PUSH2 0x28FF JUMP JUMPDEST POP PUSH1 0x1 SWAP4 SWAP3 POP POP POP JUMP JUMPDEST PUSH32 0x6E71EDAE12B1B97F4D1F60370FEF10105FA2FAAE0126114A169C64845D6126C9 DUP2 JUMP JUMPDEST PUSH1 0x12 DUP2 JUMP JUMPDEST PUSH1 0x4 SLOAD DUP2 JUMP JUMPDEST PUSH1 0x6 SLOAD PUSH20 0xFFFFFFFFFFFFFFFFFFFFFFFFFFFFFFFFFFFFFFFF AND CALLER EQ PUSH2 0x1008 JUMPI PUSH1 0x40 DUP1 MLOAD PUSH32 0x8C379A000000000000000000000000000000000000000000000000000000000 DUP2 MSTORE PUSH1 0x20 PUSH1 0x4 DUP3 ADD MSTORE PUSH1 0xF PUSH1 0x24 DUP3 ADD MSTORE PUSH32 0x445045583A20464F5242494444454E0000000000000000000000000000000000 PUSH1 0x44 DUP3 ADD MSTORE SWAP1 MLOAD SWAP1 DUP2 SWAP1 SUB PUSH1 0x64 ADD SWAP1 REVERT JUMPDEST PUSH1 0x7 DUP1 SLOAD PUSH20 0xFFFFFFFFFFFFFFFFFFFFFFFFFFFFFFFFFFFFFFFF SWAP4 DUP5 AND PUSH32 0xFFFFFFFFFFFFFFFFFFFFFFFF0000000000000000000000000000000000000000 SWAP2 DUP3 AND OR SWAP1 SWAP2 SSTORE PUSH1 0x8 DUP1 SLOAD SWAP3 SWAP1 SWAP4 AND SWAP2 AND OR SWAP1 SSTORE JUMP JUMPDEST PUSH1 0xA SLOAD DUP2 JUMP JUMPDEST PUSH1 0xB SLOAD DUP2 JUMP JUMPDEST PUSH1 0x0 PUSH1 0xD SLOAD PUSH1 0x1 EQ PUSH2 0x10DA JUMPI PUSH1 0x40 DUP1 MLOAD PUSH32 0x8C379A000000000000000000000000000000000000000000000000000000000 DUP2 MSTORE PUSH1 0x20 PUSH1 0x4 DUP3 ADD MSTORE PUSH1 0xC PUSH1 0x24 DUP3 ADD MSTORE PUSH32 0x445045583A204C4F434B45440000000000000000000000000000000000000000 PUSH1 0x44 DUP3 ADD MSTORE SWAP1 MLOAD SWAP1 DUP2 SWAP1 SUB PUSH1 0x64 ADD SWAP1 REVERT JUMPDEST PUSH1 0x0 PUSH1 0xD DUP2 SWAP1 SSTORE DUP1 PUSH2 0x10EA PUSH2 0xDEC JUMP JUMPDEST POP PUSH1 0x7 SLOAD PUSH1 0x40 DUP1 MLOAD PUSH32 0x70A0823100000000000000000000000000000000000000000000000000000000 DUP2 MSTORE ADDRESS PUSH1 0x4 DUP3 ADD MSTORE SWAP1 MLOAD SWAP4 SWAP6 POP SWAP2 SWAP4 POP PUSH1 0x0 SWAP3 PUSH20 0xFFFFFFFFFFFFFFFFFFFFFFFFFFFFFFFFFFFFFFFF SWAP1 SWAP2 AND SWAP2 PUSH4 0x70A08231 SWAP2 PUSH1 0x24 DUP1 DUP4 ADD SWAP3 PUSH1 0x20 SWAP3 SWAP2 SWAP1 DUP3 SWAP1 SUB ADD DUP2 DUP7 DUP1 EXTCODESIZE ISZERO DUP1 ISZERO PUSH2 0x1164 JUMPI PUSH1 0x0 DUP1 REVERT JUMPDEST POP GAS STATICCALL ISZERO DUP1 ISZERO PUSH2 0x1178 JUMPI RETURNDATASIZE PUSH1 0x0 DUP1 RETURNDATACOPY RETURNDATASIZE PUSH1 0x0 REVERT JUMPDEST POP POP POP POP PUSH1 0x40 MLOAD RETURNDATASIZE PUSH1 0x20 DUP2 LT ISZERO PUSH2 0x118E JUMPI PUSH1 0x0 DUP1 REVERT JUMPDEST POP MLOAD PUSH1 0x8 SLOAD PUSH1 0x40 DUP1 MLOAD PUSH32 0x70A0823100000000000000000000000000000000000000000000000000000000 DUP2 MSTORE ADDRESS PUSH1 0x4 DUP3 ADD MSTORE SWAP1 MLOAD SWAP3 SWAP4 POP PUSH1 0x0 SWAP3 PUSH20 0xFFFFFFFFFFFFFFFFFFFFFFFFFFFFFFFFFFFFFFFF SWAP1 SWAP3 AND SWAP2 PUSH4 0x70A08231 SWAP2 PUSH1 0x24 DUP1 DUP3 ADD SWAP3 PUSH1 0x20 SWAP3 SWAP1 SWAP2 SWAP1 DUP3 SWAP1 SUB ADD DUP2 DUP7 DUP1 EXTCODESIZE ISZERO DUP1 ISZERO PUSH2 0x1207 JUMPI PUSH1 0x0 DUP1 REVERT JUMPDEST POP GAS STATICCALL ISZERO DUP1 ISZERO PUSH2 0x121B JUMPI RETURNDATASIZE PUSH1 0x0 DUP1 RETURNDATACOPY RETURNDATASIZE PUSH1 0x0 REVERT JUMPDEST POP POP POP POP PUSH1 0x40 MLOAD RETURNDATASIZE PUSH1 0x20 DUP2 LT ISZERO PUSH2 0x1231 JUMPI PUSH1 0x0 DUP1 REVERT JUMPDEST POP MLOAD SWAP1 POP PUSH1 0x0 PUSH2 0x1251 DUP4 PUSH14 0xFFFFFFFFFFFFFFFFFFFFFFFFFFFF DUP8 AND PUSH2 0x2568 JUMP JUMPDEST SWAP1 POP PUSH1 0x0 PUSH2 0x126F DUP4 PUSH14 0xFFFFFFFFFFFFFFFFFFFFFFFFFFFF DUP8 AND PUSH2 0x2568 JUMP JUMPDEST SWAP1 POP PUSH1 0x0 PUSH2 0x127D DUP8 DUP8 PUSH2 0x29D4 JUMP JUMPDEST PUSH1 0x1 SLOAD SWAP1 SWAP2 POP DUP1 PUSH2 0x12B4 JUMPI PUSH2 0x12A0 PUSH2 0x3E8 PUSH2 0xC94 PUSH2 0x129B DUP8 DUP8 PUSH2 0x24E2 JUMP JUMPDEST PUSH2 0x2B42 JUMP JUMPDEST SWAP9 POP PUSH2 0x12AF PUSH1 0x0 PUSH2 0x3E8 PUSH2 0x2B94 JUMP JUMPDEST PUSH2 0x1305 JUMP JUMPDEST PUSH2 0x1302 PUSH14 0xFFFFFFFFFFFFFFFFFFFFFFFFFFFF DUP10 AND PUSH2 0x12D2 DUP7 DUP5 PUSH2 0x24E2 JUMP JUMPDEST DUP2 PUSH2 0x12D9 JUMPI INVALID JUMPDEST DIV PUSH14 0xFFFFFFFFFFFFFFFFFFFFFFFFFFFF DUP10 AND PUSH2 0x12F5 DUP7 DUP6 PUSH2 0x24E2 JUMP JUMPDEST DUP2 PUSH2 0x12FC JUMPI INVALID JUMPDEST DIV PUSH2 0x2C39 JUMP JUMPDEST SWAP9 POP JUMPDEST PUSH1 0x0 DUP10 GT PUSH2 0x135E JUMPI PUSH1 0x40 MLOAD PUSH32 0x8C379A000000000000000000000000000000000000000000000000000000000 DUP2 MSTORE PUSH1 0x4 ADD DUP1 DUP1 PUSH1 0x20 ADD DUP3 DUP2 SUB DUP3 MSTORE PUSH1 0x23 DUP2 MSTORE PUSH1 0x20 ADD DUP1 PUSH2 0x2E0B PUSH1 0x23 SWAP2 CODECOPY PUSH1 0x40 ADD SWAP2 POP POP PUSH1 0x40 MLOAD DUP1 SWAP2 SUB SWAP1 REVERT JUMPDEST PUSH2 0x1368 DUP11 DUP11 PUSH2 0x2B94 JUMP JUMPDEST PUSH2 0x1374 DUP7 DUP7 DUP11 DUP11 PUSH2 0x25DA JUMP JUMPDEST DUP2 ISZERO PUSH2 0x13B0 JUMPI PUSH1 0x9 SLOAD PUSH2 0x13AC SWAP1 PUSH14 0xFFFFFFFFFFFFFFFFFFFFFFFFFFFF DUP1 DUP3 AND SWAP2 PUSH15 0x10000000000000000000000000000 SWAP1 DIV AND PUSH2 0x24E2 JUMP JUMPDEST PUSH1 0xC SSTORE JUMPDEST PUSH1 0x40 DUP1 MLOAD DUP6 DUP2 MSTORE PUSH1 0x20 DUP2 ADD DUP6 SWAP1 MSTORE DUP2 MLOAD CALLER SWAP3 PUSH32 0x4C209B5FC8AD50758F13E2E1088BA56A560DFF690A1C6FEF26394F4C03821C4F SWAP3 DUP3 SWAP1 SUB ADD SWAP1 LOG2 POP POP PUSH1 0x1 PUSH1 0xD SSTORE POP SWAP5 SWAP7 SWAP6 POP POP POP POP POP POP JUMP JUMPDEST PUSH1 0x2 PUSH1 0x20 MSTORE PUSH1 0x0 SWAP1 DUP2 MSTORE PUSH1 0x40 SWAP1 KECCAK256 SLOAD DUP2 JUMP JUMPDEST PUSH2 0x1417 PUSH2 0x2C51 JUMP JUMPDEST PUSH20 0xFFFFFFFFFFFFFFFFFFFFFFFFFFFFFFFFFFFFFFFF AND PUSH2 0x1435 PUSH2 0x19D8 JUMP JUMPDEST PUSH20 0xFFFFFFFFFFFFFFFFFFFFFFFFFFFFFFFFFFFFFFFF AND EQ PUSH2 0x14B7 JUMPI PUSH1 0x40 DUP1 MLOAD PUSH32 0x8C379A000000000000000000000000000000000000000000000000000000000 DUP2 MSTORE PUSH1 0x20 PUSH1 0x4 DUP3 ADD DUP2 SWAP1 MSTORE PUSH1 0x24 DUP3 ADD MSTORE PUSH32 0x4F776E61626C653A2063616C6C6572206973206E6F7420746865206F776E6572 PUSH1 0x44 DUP3 ADD MSTORE SWAP1 MLOAD SWAP1 DUP2 SWAP1 SUB PUSH1 0x64 ADD SWAP1 REVERT JUMPDEST PUSH1 0x0 DUP1 SLOAD PUSH1 0x40 MLOAD PUSH20 0xFFFFFFFFFFFFFFFFFFFFFFFFFFFFFFFFFFFFFFFF SWAP1 SWAP2 AND SWAP1 PUSH32 0x8BE0079C531659141344CD1FD0A4F28419497F9722A3DAAFE3B4186F6B6457E0 SWAP1 DUP4 SWAP1 LOG3 PUSH1 0x0 DUP1 SLOAD PUSH32 0xFFFFFFFFFFFFFFFFFFFFFFFF0000000000000000000000000000000000000000 AND SWAP1 SSTORE JUMP JUMPDEST PUSH1 0xC SLOAD DUP2 JUMP JUMPDEST PUSH1 0x5 PUSH1 0x20 MSTORE PUSH1 0x0 SWAP1 DUP2 MSTORE PUSH1 0x40 SWAP1 KECCAK256 SLOAD DUP2 JUMP JUMPDEST PUSH1 0x0 PUSH2 0x1548 PUSH2 0x19D8 JUMP JUMPDEST SWAP1 POP SWAP1 JUMP JUMPDEST PUSH1 0x0 DUP1 PUSH1 0xD SLOAD PUSH1 0x1 EQ PUSH2 0x15C1 JUMPI PUSH1 0x40 DUP1 MLOAD PUSH32 0x8C379A000000000000000000000000000000000000000000000000000000000 DUP2 MSTORE PUSH1 0x20 PUSH1 0x4 DUP3 ADD MSTORE PUSH1 0xC PUSH1 0x24 DUP3 ADD MSTORE PUSH32 0x445045583A204C4F434B45440000000000000000000000000000000000000000 PUSH1 0x44 DUP3 ADD MSTORE SWAP1 MLOAD SWAP1 DUP2 SWAP1 SUB PUSH1 0x64 ADD SWAP1 REVERT JUMPDEST PUSH1 0x0 PUSH1 0xD DUP2 SWAP1 SSTORE DUP1 PUSH2 0x15D1 PUSH2 0xDEC JUMP JUMPDEST POP PUSH1 0x7 SLOAD PUSH1 0x8 SLOAD PUSH1 0x40 DUP1 MLOAD PUSH32 0x70A0823100000000000000000000000000000000000000000000000000000000 DUP2 MSTORE ADDRESS PUSH1 0x4 DUP3 ADD MSTORE SWAP1 MLOAD SWAP5 SWAP7 POP SWAP3 SWAP5 POP PUSH20 0xFFFFFFFFFFFFFFFFFFFFFFFFFFFFFFFFFFFFFFFF SWAP2 DUP3 AND SWAP4 SWAP2 AND SWAP2 PUSH1 0x0 SWAP2 DUP5 SWAP2 PUSH4 0x70A08231 SWAP2 PUSH1 0x24 DUP1 DUP4 ADD SWAP3 PUSH1 0x20 SWAP3 SWAP2 SWAP1 DUP3 SWAP1 SUB ADD DUP2 DUP7 DUP1 EXTCODESIZE ISZERO DUP1 ISZERO PUSH2 0x1653 JUMPI PUSH1 0x0 DUP1 REVERT JUMPDEST POP GAS STATICCALL ISZERO DUP1 ISZERO PUSH2 0x1667 JUMPI RETURNDATASIZE PUSH1 0x0 DUP1 RETURNDATACOPY RETURNDATASIZE PUSH1 0x0 REVERT JUMPDEST POP POP POP POP PUSH1 0x40 MLOAD RETURNDATASIZE PUSH1 0x20 DUP2 LT ISZERO PUSH2 0x167D JUMPI PUSH1 0x0 DUP1 REVERT JUMPDEST POP MLOAD PUSH1 0x40 DUP1 MLOAD PUSH32 0x70A0823100000000000000000000000000000000000000000000000000000000 DUP2 MSTORE ADDRESS PUSH1 0x4 DUP3 ADD MSTORE SWAP1 MLOAD SWAP2 SWAP3 POP PUSH1 0x0 SWAP2 PUSH20 0xFFFFFFFFFFFFFFFFFFFFFFFFFFFFFFFFFFFFFFFF DUP6 AND SWAP2 PUSH4 0x70A08231 SWAP2 PUSH1 0x24 DUP1 DUP4 ADD SWAP3 PUSH1 0x20 SWAP3 SWAP2 SWAP1 DUP3 SWAP1 SUB ADD DUP2 DUP7 DUP1 EXTCODESIZE ISZERO DUP1 ISZERO PUSH2 0x16F1 JUMPI PUSH1 0x0 DUP1 REVERT JUMPDEST POP GAS STATICCALL ISZERO DUP1 ISZERO PUSH2 0x1705 JUMPI RETURNDATASIZE PUSH1 0x0 DUP1 RETURNDATACOPY RETURNDATASIZE PUSH1 0x0 REVERT JUMPDEST POP POP POP POP PUSH1 0x40 MLOAD RETURNDATASIZE PUSH1 0x20 DUP2 LT ISZERO PUSH2 0x171B JUMPI PUSH1 0x0 DUP1 REVERT JUMPDEST POP MLOAD ADDRESS PUSH1 0x0 SWAP1 DUP2 MSTORE PUSH1 0x2 PUSH1 0x20 MSTORE PUSH1 0x40 DUP2 KECCAK256 SLOAD SWAP2 SWAP3 POP PUSH2 0x173A DUP9 DUP9 PUSH2 0x29D4 JUMP JUMPDEST PUSH1 0x1 SLOAD SWAP1 SWAP2 POP DUP1 PUSH2 0x174B DUP5 DUP8 PUSH2 0x24E2 JUMP JUMPDEST DUP2 PUSH2 0x1752 JUMPI INVALID JUMPDEST DIV SWAP11 POP DUP1 PUSH2 0x1760 DUP5 DUP7 PUSH2 0x24E2 JUMP JUMPDEST DUP2 PUSH2 0x1767 JUMPI INVALID JUMPDEST DIV SWAP10 POP PUSH1 0x0 DUP12 GT DUP1 ISZERO PUSH2 0x177A JUMPI POP PUSH1 0x0 DUP11 GT JUMPDEST PUSH2 0x17CF JUMPI PUSH1 0x40 MLOAD PUSH32 0x8C379A000000000000000000000000000000000000000000000000000000000 DUP2 MSTORE PUSH1 0x4 ADD DUP1 DUP1 PUSH1 0x20 ADD DUP3 DUP2 SUB DUP3 MSTORE PUSH1 0x23 DUP2 MSTORE PUSH1 0x20 ADD DUP1 PUSH2 0x2E2E PUSH1 0x23 SWAP2 CODECOPY PUSH1 0x40 ADD SWAP2 POP POP PUSH1 0x40 MLOAD DUP1 SWAP2 SUB SWAP1 REVERT JUMPDEST PUSH2 0x17D9 ADDRESS DUP5 PUSH2 0x2C55 JUMP JUMPDEST PUSH2 0x17E4 DUP8 DUP14 DUP14 PUSH2 0x22D5 JUMP JUMPDEST PUSH2 0x17EF DUP7 DUP14 DUP13 PUSH2 0x22D5 JUMP JUMPDEST PUSH1 0x40 DUP1 MLOAD PUSH32 0x70A0823100000000000000000000000000000000000000000000000000000000 DUP2 MSTORE ADDRESS PUSH1 0x4 DUP3 ADD MSTORE SWAP1 MLOAD PUSH20 0xFFFFFFFFFFFFFFFFFFFFFFFFFFFFFFFFFFFFFFFF DUP10 AND SWAP2 PUSH4 0x70A08231 SWAP2 PUSH1 0x24 DUP1 DUP4 ADD SWAP3 PUSH1 0x20 SWAP3 SWAP2 SWAP1 DUP3 SWAP1 SUB ADD DUP2 DUP7 DUP1 EXTCODESIZE ISZERO DUP1 ISZERO PUSH2 0x185B JUMPI PUSH1 0x0 DUP1 REVERT JUMPDEST POP GAS STATICCALL ISZERO DUP1 ISZERO PUSH2 0x186F JUMPI RETURNDATASIZE PUSH1 0x0 DUP1 RETURNDATACOPY RETURNDATASIZE PUSH1 0x0 REVERT JUMPDEST POP POP POP POP PUSH1 0x40 MLOAD RETURNDATASIZE PUSH1 0x20 DUP2 LT ISZERO PUSH2 0x1885 JUMPI PUSH1 0x0 DUP1 REVERT JUMPDEST POP MLOAD PUSH1 0x40 DUP1 MLOAD PUSH32 0x70A0823100000000000000000000000000000000000000000000000000000000 DUP2 MSTORE ADDRESS PUSH1 0x4 DUP3 ADD MSTORE SWAP1 MLOAD SWAP2 SWAP7 POP PUSH20 0xFFFFFFFFFFFFFFFFFFFFFFFFFFFFFFFFFFFFFFFF DUP9 AND SWAP2 PUSH4 0x70A08231 SWAP2 PUSH1 0x24 DUP1 DUP3 ADD SWAP3 PUSH1 0x20 SWAP3 SWAP1 SWAP2 SWAP1 DUP3 SWAP1 SUB ADD DUP2 DUP7 DUP1 EXTCODESIZE ISZERO DUP1 ISZERO PUSH2 0x18F7 JUMPI PUSH1 0x0 DUP1 REVERT JUMPDEST POP GAS STATICCALL ISZERO DUP1 ISZERO PUSH2 0x190B JUMPI RETURNDATASIZE PUSH1 0x0 DUP1 RETURNDATACOPY RETURNDATASIZE PUSH1 0x0 REVERT JUMPDEST POP POP POP POP PUSH1 0x40 MLOAD RETURNDATASIZE PUSH1 0x20 DUP2 LT ISZERO PUSH2 0x1921 JUMPI PUSH1 0x0 DUP1 REVERT JUMPDEST POP MLOAD SWAP4 POP PUSH2 0x1931 DUP6 DUP6 DUP12 DUP12 PUSH2 0x25DA JUMP JUMPDEST DUP2 ISZERO PUSH2 0x196D JUMPI PUSH1 0x9 SLOAD PUSH2 0x1969 SWAP1 PUSH14 0xFFFFFFFFFFFFFFFFFFFFFFFFFFFF DUP1 DUP3 AND SWAP2 PUSH15 0x10000000000000000000000000000 SWAP1 DIV AND PUSH2 0x24E2 JUMP JUMPDEST PUSH1 0xC SSTORE JUMPDEST PUSH1 0x40 DUP1 MLOAD DUP13 DUP2 MSTORE PUSH1 0x20 DUP2 ADD DUP13 SWAP1 MSTORE DUP2 MLOAD PUSH20 0xFFFFFFFFFFFFFFFFFFFFFFFFFFFFFFFFFFFFFFFF DUP16 AND SWAP3 CALLER SWAP3 PUSH32 0xDCCD412F0B1252819CB1FD330B93224CA42612892BB3F4F789976E6D81936496 SWAP3 SWAP1 DUP2 SWAP1 SUB SWAP1 SWAP2 ADD SWAP1 LOG3 POP POP POP POP POP POP POP POP POP PUSH1 0x1 PUSH1 0xD DUP2 SWAP1 SSTORE POP SWAP2 POP SWAP2 JUMP JUMPDEST PUSH1 0x0 SLOAD PUSH20 0xFFFFFFFFFFFFFFFFFFFFFFFFFFFFFFFFFFFFFFFF AND SWAP1 JUMP JUMPDEST PUSH1 0x40 MLOAD DUP1 PUSH1 0x40 ADD PUSH1 0x40 MSTORE DUP1 PUSH1 0x7 DUP2 MSTORE PUSH1 0x20 ADD PUSH32 0x445045582D4C5000000000000000000000000000000000000000000000000000 DUP2 MSTORE POP DUP2 JUMP JUMPDEST PUSH1 0x0 PUSH2 0xE4E CALLER DUP5 DUP5 PUSH2 0x28FF JUMP JUMPDEST PUSH2 0x3E8 DUP2 JUMP JUMPDEST PUSH1 0xD SLOAD PUSH1 0x1 EQ PUSH2 0x1AB1 JUMPI PUSH1 0x40 DUP1 MLOAD PUSH32 0x8C379A000000000000000000000000000000000000000000000000000000000 DUP2 MSTORE PUSH1 0x20 PUSH1 0x4 DUP3 ADD MSTORE PUSH1 0xC PUSH1 0x24 DUP3 ADD MSTORE PUSH32 0x445045583A204C4F434B45440000000000000000000000000000000000000000 PUSH1 0x44 DUP3 ADD MSTORE SWAP1 MLOAD SWAP1 DUP2 SWAP1 SUB PUSH1 0x64 ADD SWAP1 REVERT JUMPDEST PUSH1 0x0 PUSH1 0xD SSTORE PUSH1 0x7 SLOAD PUSH1 0x8 SLOAD PUSH1 0x9 SLOAD PUSH1 0x40 DUP1 MLOAD PUSH32 0x70A0823100000000000000000000000000000000000000000000000000000000 DUP2 MSTORE ADDRESS PUSH1 0x4 DUP3 ADD MSTORE SWAP1 MLOAD PUSH20 0xFFFFFFFFFFFFFFFFFFFFFFFFFFFFFFFFFFFFFFFF SWAP5 DUP6 AND SWAP5 SWAP1 SWAP4 AND SWAP3 PUSH2 0x1B87 SWAP3 DUP6 SWAP3 DUP8 SWAP3 PUSH2 0x1B82 SWAP3 PUSH14 0xFFFFFFFFFFFFFFFFFFFFFFFFFFFF AND SWAP2 DUP6 SWAP2 PUSH4 0x70A08231 SWAP2 PUSH1 0x24 DUP1 DUP3 ADD SWAP3 PUSH1 0x20 SWAP3 SWAP1 SWAP2 SWAP1 DUP3 SWAP1 SUB ADD DUP2 DUP7 DUP1 EXTCODESIZE ISZERO DUP1 ISZERO PUSH2 0x1B50 JUMPI PUSH1 0x0 DUP1 REVERT JUMPDEST POP GAS STATICCALL ISZERO DUP1 ISZERO PUSH2 0x1B64 JUMPI RETURNDATASIZE PUSH1 0x0 DUP1 RETURNDATACOPY RETURNDATASIZE PUSH1 0x0 REVERT JUMPDEST POP POP POP POP PUSH1 0x40 MLOAD RETURNDATASIZE PUSH1 0x20 DUP2 LT ISZERO PUSH2 0x1B7A JUMPI PUSH1 0x0 DUP1 REVERT JUMPDEST POP MLOAD SWAP1 PUSH2 0x2568 JUMP JUMPDEST PUSH2 0x22D5 JUMP JUMPDEST PUSH2 0x1C23 DUP2 DUP5 PUSH2 0x1B82 PUSH1 0x9 PUSH1 0xE SWAP1 SLOAD SWAP1 PUSH2 0x100 EXP SWAP1 DIV PUSH14 0xFFFFFFFFFFFFFFFFFFFFFFFFFFFF AND PUSH14 0xFFFFFFFFFFFFFFFFFFFFFFFFFFFF AND DUP6 PUSH20 0xFFFFFFFFFFFFFFFFFFFFFFFFFFFFFFFFFFFFFFFF AND PUSH4 0x70A08231 ADDRESS PUSH1 0x40 MLOAD DUP3 PUSH4 0xFFFFFFFF AND PUSH1 0xE0 SHL DUP2 MSTORE PUSH1 0x4 ADD DUP1 DUP3 PUSH20 0xFFFFFFFFFFFFFFFFFFFFFFFFFFFFFFFFFFFFFFFF AND DUP2 MSTORE PUSH1 0x20 ADD SWAP2 POP POP PUSH1 0x20 PUSH1 0x40 MLOAD DUP1 DUP4 SUB DUP2 DUP7 DUP1 EXTCODESIZE ISZERO DUP1 ISZERO PUSH2 0x1B50 JUMPI PUSH1 0x0 DUP1 REVERT JUMPDEST POP POP PUSH1 0x1 PUSH1 0xD SSTORE POP JUMP JUMPDEST PUSH1 0x6 SLOAD PUSH20 0xFFFFFFFFFFFFFFFFFFFFFFFFFFFFFFFFFFFFFFFF AND DUP2 JUMP JUMPDEST PUSH1 0x8 SLOAD PUSH20 0xFFFFFFFFFFFFFFFFFFFFFFFFFFFFFFFFFFFFFFFF AND DUP2 JUMP JUMPDEST TIMESTAMP DUP5 LT ISZERO PUSH2 0x1CD4 JUMPI PUSH1 0x40 DUP1 MLOAD PUSH32 0x8C379A000000000000000000000000000000000000000000000000000000000 DUP2 MSTORE PUSH1 0x20 PUSH1 0x4 DUP3 ADD MSTORE PUSH1 0x12 PUSH1 0x24 DUP3 ADD MSTORE PUSH32 0x556E697377617056323A20455850495245440000000000000000000000000000 PUSH1 0x44 DUP3 ADD MSTORE SWAP1 MLOAD SWAP1 DUP2 SWAP1 SUB PUSH1 0x64 ADD SWAP1 REVERT JUMPDEST PUSH1 0x4 SLOAD PUSH20 0xFFFFFFFFFFFFFFFFFFFFFFFFFFFFFFFFFFFFFFFF DUP1 DUP10 AND PUSH1 0x0 DUP2 DUP2 MSTORE PUSH1 0x5 PUSH1 0x20 SWAP1 DUP2 MSTORE PUSH1 0x40 DUP1 DUP4 KECCAK256 DUP1 SLOAD PUSH1 0x1 DUP1 DUP3 ADD SWAP1 SWAP3 SSTORE DUP3 MLOAD PUSH32 0x6E71EDAE12B1B97F4D1F60370FEF10105FA2FAAE0126114A169C64845D6126C9 DUP2 DUP7 ADD MSTORE DUP1 DUP5 ADD SWAP7 SWAP1 SWAP7 MSTORE SWAP6 DUP14 AND PUSH1 0x60 DUP7 ADD MSTORE PUSH1 0x80 DUP6 ADD DUP13 SWAP1 MSTORE PUSH1 0xA0 DUP6 ADD SWAP6 SWAP1 SWAP6 MSTORE PUSH1 0xC0 DUP1 DUP6 ADD DUP12 SWAP1 MSTORE DUP2 MLOAD DUP1 DUP7 SUB SWAP1 SWAP2 ADD DUP2 MSTORE PUSH1 0xE0 DUP6 ADD DUP3 MSTORE DUP1 MLOAD SWAP1 DUP4 ADD KECCAK256 PUSH32 0x1901000000000000000000000000000000000000000000000000000000000000 PUSH2 0x100 DUP7 ADD MSTORE PUSH2 0x102 DUP6 ADD SWAP7 SWAP1 SWAP7 MSTORE PUSH2 0x122 DUP1 DUP6 ADD SWAP7 SWAP1 SWAP7 MSTORE DUP1 MLOAD DUP1 DUP6 SUB SWAP1 SWAP7 ADD DUP7 MSTORE PUSH2 0x142 DUP5 ADD DUP1 DUP3 MSTORE DUP7 MLOAD SWAP7 DUP4 ADD SWAP7 SWAP1 SWAP7 KECCAK256 SWAP6 DUP4 SWAP1 MSTORE PUSH2 0x162 DUP5 ADD DUP1 DUP3 MSTORE DUP7 SWAP1 MSTORE PUSH1 0xFF DUP10 AND PUSH2 0x182 DUP6 ADD MSTORE PUSH2 0x1A2 DUP5 ADD DUP9 SWAP1 MSTORE PUSH2 0x1C2 DUP5 ADD DUP8 SWAP1 MSTORE MLOAD SWAP2 SWAP4 SWAP3 PUSH2 0x1E2 DUP1 DUP3 ADD SWAP4 PUSH32 0xFFFFFFFFFFFFFFFFFFFFFFFFFFFFFFFFFFFFFFFFFFFFFFFFFFFFFFFFFFFFFFE0 DUP2 ADD SWAP3 DUP2 SWAP1 SUB SWAP1 SWAP2 ADD SWAP1 DUP6 GAS STATICCALL ISZERO DUP1 ISZERO PUSH2 0x1E35 JUMPI RETURNDATASIZE PUSH1 0x0 DUP1 RETURNDATACOPY RETURNDATASIZE PUSH1 0x0 REVERT JUMPDEST POP POP PUSH1 0x40 MLOAD PUSH32 0xFFFFFFFFFFFFFFFFFFFFFFFFFFFFFFFFFFFFFFFFFFFFFFFFFFFFFFFFFFFFFFE0 ADD MLOAD SWAP2 POP POP PUSH20 0xFFFFFFFFFFFFFFFFFFFFFFFFFFFFFFFFFFFFFFFF DUP2 AND ISZERO DUP1 ISZERO SWAP1 PUSH2 0x1EB0 JUMPI POP DUP9 PUSH20 0xFFFFFFFFFFFFFFFFFFFFFFFFFFFFFFFFFFFFFFFF AND DUP2 PUSH20 0xFFFFFFFFFFFFFFFFFFFFFFFFFFFFFFFFFFFFFFFF AND EQ JUMPDEST PUSH2 0x1F1B JUMPI PUSH1 0x40 DUP1 MLOAD PUSH32 0x8C379A000000000000000000000000000000000000000000000000000000000 DUP2 MSTORE PUSH1 0x20 PUSH1 0x4 DUP3 ADD MSTORE PUSH1 0x1C PUSH1 0x24 DUP3 ADD MSTORE PUSH32 0x556E697377617056323A20494E56414C49445F5349474E415455524500000000 PUSH1 0x44 DUP3 ADD MSTORE SWAP1 MLOAD SWAP1 DUP2 SWAP1 SUB PUSH1 0x64 ADD SWAP1 REVERT JUMPDEST PUSH2 0x1F26 DUP10 DUP10 DUP10 PUSH2 0x2890 JUMP JUMPDEST POP POP POP POP POP POP POP POP POP JUMP JUMPDEST PUSH1 0x3 PUSH1 0x20 SWAP1 DUP2 MSTORE PUSH1 0x0 SWAP3 DUP4 MSTORE PUSH1 0x40 DUP1 DUP5 KECCAK256 SWAP1 SWAP2 MSTORE SWAP1 DUP3 MSTORE SWAP1 KECCAK256 SLOAD DUP2 JUMP JUMPDEST PUSH2 0x1F56 PUSH2 0x2C51 JUMP JUMPDEST PUSH20 0xFFFFFFFFFFFFFFFFFFFFFFFFFFFFFFFFFFFFFFFF AND PUSH2 0x1F74 PUSH2 0x19D8 JUMP JUMPDEST PUSH20 0xFFFFFFFFFFFFFFFFFFFFFFFFFFFFFFFFFFFFFFFF AND EQ PUSH2 0x1FF6 JUMPI PUSH1 0x40 DUP1 MLOAD PUSH32 0x8C379A000000000000000000000000000000000000000000000000000000000 DUP2 MSTORE PUSH1 0x20 PUSH1 0x4 DUP3 ADD DUP2 SWAP1 MSTORE PUSH1 0x24 DUP3 ADD MSTORE PUSH32 0x4F776E61626C653A2063616C6C6572206973206E6F7420746865206F776E6572 PUSH1 0x44 DUP3 ADD MSTORE SWAP1 MLOAD SWAP1 DUP2 SWAP1 SUB PUSH1 0x64 ADD SWAP1 REVERT JUMPDEST PUSH20 0xFFFFFFFFFFFFFFFFFFFFFFFFFFFFFFFFFFFFFFFF DUP2 AND PUSH2 0x2062 JUMPI PUSH1 0x40 MLOAD PUSH32 0x8C379A000000000000000000000000000000000000000000000000000000000 DUP2 MSTORE PUSH1 0x4 ADD DUP1 DUP1 PUSH1 0x20 ADD DUP3 DUP2 SUB DUP3 MSTORE PUSH1 0x26 DUP2 MSTORE PUSH1 0x20 ADD DUP1 PUSH2 0x2DE5 PUSH1 0x26 SWAP2 CODECOPY PUSH1 0x40 ADD SWAP2 POP POP PUSH1 0x40 MLOAD DUP1 SWAP2 SUB SWAP1 REVERT JUMPDEST PUSH1 0x0 DUP1 SLOAD PUSH1 0x40 MLOAD PUSH20 0xFFFFFFFFFFFFFFFFFFFFFFFFFFFFFFFFFFFFFFFF DUP1 DUP6 AND SWAP4 SWAP3 AND SWAP2 PUSH32 0x8BE0079C531659141344CD1FD0A4F28419497F9722A3DAAFE3B4186F6B6457E0 SWAP2 LOG3 PUSH1 0x0 DUP1 SLOAD PUSH32 0xFFFFFFFFFFFFFFFFFFFFFFFF0000000000000000000000000000000000000000 AND PUSH20 0xFFFFFFFFFFFFFFFFFFFFFFFFFFFFFFFFFFFFFFFF SWAP3 SWAP1 SWAP3 AND SWAP2 SWAP1 SWAP2 OR SWAP1 SSTORE JUMP JUMPDEST PUSH1 0xD SLOAD PUSH1 0x1 EQ PUSH2 0x2160 JUMPI PUSH1 0x40 DUP1 MLOAD PUSH32 0x8C379A000000000000000000000000000000000000000000000000000000000 DUP2 MSTORE PUSH1 0x20 PUSH1 0x4 DUP3 ADD MSTORE PUSH1 0xC PUSH1 0x24 DUP3 ADD MSTORE PUSH32 0x445045583A204C4F434B45440000000000000000000000000000000000000000 PUSH1 0x44 DUP3 ADD MSTORE SWAP1 MLOAD SWAP1 DUP2 SWAP1 SUB PUSH1 0x64 ADD SWAP1 REVERT JUMPDEST PUSH1 0x0 PUSH1 0xD SSTORE PUSH1 0x7 SLOAD PUSH1 0x40 DUP1 MLOAD PUSH32 0x70A0823100000000000000000000000000000000000000000000000000000000 DUP2 MSTORE ADDRESS PUSH1 0x4 DUP3 ADD MSTORE SWAP1 MLOAD PUSH2 0x22CE SWAP3 PUSH20 0xFFFFFFFFFFFFFFFFFFFFFFFFFFFFFFFFFFFFFFFF AND SWAP2 PUSH4 0x70A08231 SWAP2 PUSH1 0x24 DUP1 DUP4 ADD SWAP3 PUSH1 0x20 SWAP3 SWAP2 SWAP1 DUP3 SWAP1 SUB ADD DUP2 DUP7 DUP1 EXTCODESIZE ISZERO DUP1 ISZERO PUSH2 0x21D7 JUMPI PUSH1 0x0 DUP1 REVERT JUMPDEST POP GAS STATICCALL ISZERO DUP1 ISZERO PUSH2 0x21EB JUMPI RETURNDATASIZE PUSH1 0x0 DUP1 RETURNDATACOPY RETURNDATASIZE PUSH1 0x0 REVERT JUMPDEST POP POP POP POP PUSH1 0x40 MLOAD RETURNDATASIZE PUSH1 0x20 DUP2 LT ISZERO PUSH2 0x2201 JUMPI PUSH1 0x0 DUP1 REVERT JUMPDEST POP MLOAD PUSH1 0x8 SLOAD PUSH1 0x40 DUP1 MLOAD PUSH32 0x70A0823100000000000000000000000000000000000000000000000000000000 DUP2 MSTORE ADDRESS PUSH1 0x4 DUP3 ADD MSTORE SWAP1 MLOAD PUSH20 0xFFFFFFFFFFFFFFFFFFFFFFFFFFFFFFFFFFFFFFFF SWAP1 SWAP3 AND SWAP2 PUSH4 0x70A08231 SWAP2 PUSH1 0x24 DUP1 DUP3 ADD SWAP3 PUSH1 0x20 SWAP3 SWAP1 SWAP2 SWAP1 DUP3 SWAP1 SUB ADD DUP2 DUP7 DUP1 EXTCODESIZE ISZERO DUP1 ISZERO PUSH2 0x2274 JUMPI PUSH1 0x0 DUP1 REVERT JUMPDEST POP GAS STATICCALL ISZERO DUP1 ISZERO PUSH2 0x2288 JUMPI RETURNDATASIZE PUSH1 0x0 DUP1 RETURNDATACOPY RETURNDATASIZE PUSH1 0x0 REVERT JUMPDEST POP POP POP POP PUSH1 0x40 MLOAD RETURNDATASIZE PUSH1 0x20 DUP2 LT ISZERO PUSH2 0x229E JUMPI PUSH1 0x0 DUP1 REVERT JUMPDEST POP MLOAD PUSH1 0x9 SLOAD PUSH14 0xFFFFFFFFFFFFFFFFFFFFFFFFFFFF DUP1 DUP3 AND SWAP2 PUSH15 0x10000000000000000000000000000 SWAP1 DIV AND PUSH2 0x25DA JUMP JUMPDEST PUSH1 0x1 PUSH1 0xD SSTORE JUMP JUMPDEST PUSH1 0x40 DUP1 MLOAD DUP1 DUP3 ADD DUP3 MSTORE PUSH1 0x19 DUP2 MSTORE PUSH32 0x7472616E7366657228616464726573732C75696E743235362900000000000000 PUSH1 0x20 SWAP2 DUP3 ADD MSTORE DUP2 MLOAD PUSH20 0xFFFFFFFFFFFFFFFFFFFFFFFFFFFFFFFFFFFFFFFF DUP6 DUP2 AND PUSH1 0x24 DUP4 ADD MSTORE PUSH1 0x44 DUP1 DUP4 ADD DUP7 SWAP1 MSTORE DUP5 MLOAD DUP1 DUP5 SUB SWAP1 SWAP2 ADD DUP2 MSTORE PUSH1 0x64 SWAP1 SWAP3 ADD DUP5 MSTORE SWAP2 DUP2 ADD DUP1 MLOAD PUSH28 0xFFFFFFFFFFFFFFFFFFFFFFFFFFFFFFFFFFFFFFFFFFFFFFFFFFFFFFFF AND PUSH32 0xA9059CBB00000000000000000000000000000000000000000000000000000000 OR DUP2 MSTORE SWAP3 MLOAD DUP2 MLOAD PUSH1 0x0 SWAP5 PUSH1 0x60 SWAP5 DUP10 AND SWAP4 SWAP3 SWAP2 DUP3 SWAP2 SWAP1 DUP1 DUP4 DUP4 JUMPDEST PUSH1 0x20 DUP4 LT PUSH2 0x23DB JUMPI DUP1 MLOAD DUP3 MSTORE PUSH32 0xFFFFFFFFFFFFFFFFFFFFFFFFFFFFFFFFFFFFFFFFFFFFFFFFFFFFFFFFFFFFFFE0 SWAP1 SWAP3 ADD SWAP2 PUSH1 0x20 SWAP2 DUP3 ADD SWAP2 ADD PUSH2 0x239E JUMP JUMPDEST PUSH1 0x1 DUP4 PUSH1 0x20 SUB PUSH2 0x100 EXP SUB DUP1 NOT DUP3 MLOAD AND DUP2 DUP5 MLOAD AND DUP1 DUP3 OR DUP6 MSTORE POP POP POP POP POP POP SWAP1 POP ADD SWAP2 POP POP PUSH1 0x0 PUSH1 0x40 MLOAD DUP1 DUP4 SUB DUP2 PUSH1 0x0 DUP7 GAS CALL SWAP2 POP POP RETURNDATASIZE DUP1 PUSH1 0x0 DUP2 EQ PUSH2 0x243D JUMPI PUSH1 0x40 MLOAD SWAP2 POP PUSH1 0x1F NOT PUSH1 0x3F RETURNDATASIZE ADD AND DUP3 ADD PUSH1 0x40 MSTORE RETURNDATASIZE DUP3 MSTORE RETURNDATASIZE PUSH1 0x0 PUSH1 0x20 DUP5 ADD RETURNDATACOPY PUSH2 0x2442 JUMP JUMPDEST PUSH1 0x60 SWAP2 POP JUMPDEST POP SWAP2 POP SWAP2 POP DUP2 DUP1 ISZERO PUSH2 0x2470 JUMPI POP DUP1 MLOAD ISZERO DUP1 PUSH2 0x2470 JUMPI POP DUP1 DUP1 PUSH1 0x20 ADD SWAP1 MLOAD PUSH1 0x20 DUP2 LT ISZERO PUSH2 0x246D JUMPI PUSH1 0x0 DUP1 REVERT JUMPDEST POP MLOAD JUMPDEST PUSH2 0x24DB JUMPI PUSH1 0x40 DUP1 MLOAD PUSH32 0x8C379A000000000000000000000000000000000000000000000000000000000 DUP2 MSTORE PUSH1 0x20 PUSH1 0x4 DUP3 ADD MSTORE PUSH1 0x15 PUSH1 0x24 DUP3 ADD MSTORE PUSH32 0x445045583A205452414E534645525F4641494C45440000000000000000000000 PUSH1 0x44 DUP3 ADD MSTORE SWAP1 MLOAD SWAP1 DUP2 SWAP1 SUB PUSH1 0x64 ADD SWAP1 REVERT JUMPDEST POP POP POP POP POP JUMP JUMPDEST PUSH1 0x0 DUP2 ISZERO DUP1 PUSH2 0x24FD JUMPI POP POP DUP1 DUP3 MUL DUP3 DUP3 DUP3 DUP2 PUSH2 0x24FA JUMPI INVALID JUMPDEST DIV EQ JUMPDEST PUSH2 0xE52 JUMPI PUSH1 0x40 DUP1 MLOAD PUSH32 0x8C379A000000000000000000000000000000000000000000000000000000000 DUP2 MSTORE PUSH1 0x20 PUSH1 0x4 DUP3 ADD MSTORE PUSH1 0x14 PUSH1 0x24 DUP3 ADD MSTORE PUSH32 0x64732D6D6174682D6D756C2D6F766572666C6F77000000000000000000000000 PUSH1 0x44 DUP3 ADD MSTORE SWAP1 MLOAD SWAP1 DUP2 SWAP1 SUB PUSH1 0x64 ADD SWAP1 REVERT JUMPDEST DUP1 DUP3 SUB DUP3 DUP2 GT ISZERO PUSH2 0xE52 JUMPI PUSH1 0x40 DUP1 MLOAD PUSH32 0x8C379A000000000000000000000000000000000000000000000000000000000 DUP2 MSTORE PUSH1 0x20 PUSH1 0x4 DUP3 ADD MSTORE PUSH1 0x15 PUSH1 0x24 DUP3 ADD MSTORE PUSH32 0x64732D6D6174682D7375622D756E646572666C6F770000000000000000000000 PUSH1 0x44 DUP3 ADD MSTORE SWAP1 MLOAD SWAP1 DUP2 SWAP1 SUB PUSH1 0x64 ADD SWAP1 REVERT JUMPDEST PUSH14 0xFFFFFFFFFFFFFFFFFFFFFFFFFFFF DUP5 GT DUP1 ISZERO SWAP1 PUSH2 0x2606 JUMPI POP PUSH14 0xFFFFFFFFFFFFFFFFFFFFFFFFFFFF DUP4 GT ISZERO JUMPDEST PUSH2 0x2671 JUMPI PUSH1 0x40 DUP1 MLOAD PUSH32 0x8C379A000000000000000000000000000000000000000000000000000000000 DUP2 MSTORE PUSH1 0x20 PUSH1 0x4 DUP3 ADD MSTORE PUSH1 0xE PUSH1 0x24 DUP3 ADD MSTORE PUSH32 0x445045583A204F564552464C4F57000000000000000000000000000000000000 PUSH1 0x44 DUP3 ADD MSTORE SWAP1 MLOAD SWAP1 DUP2 SWAP1 SUB PUSH1 0x64 ADD SWAP1 REVERT JUMPDEST PUSH1 0x9 SLOAD PUSH4 0xFFFFFFFF TIMESTAMP DUP2 AND SWAP2 PUSH29 0x100000000000000000000000000000000000000000000000000000000 SWAP1 DIV DUP2 AND DUP3 SUB SWAP1 DUP2 AND ISZERO DUP1 ISZERO SWAP1 PUSH2 0x26C1 JUMPI POP PUSH14 0xFFFFFFFFFFFFFFFFFFFFFFFFFFFF DUP5 AND ISZERO ISZERO JUMPDEST DUP1 ISZERO PUSH2 0x26DC JUMPI POP PUSH14 0xFFFFFFFFFFFFFFFFFFFFFFFFFFFF DUP4 AND ISZERO ISZERO JUMPDEST ISZERO PUSH2 0x2786 JUMPI DUP1 PUSH4 0xFFFFFFFF AND PUSH2 0x2719 DUP6 PUSH2 0x26F5 DUP7 PUSH2 0x2D0D JUMP JUMPDEST PUSH28 0xFFFFFFFFFFFFFFFFFFFFFFFFFFFFFFFFFFFFFFFFFFFFFFFFFFFFFFFF AND SWAP1 PUSH2 0x2D31 JUMP JUMPDEST PUSH1 0xA DUP1 SLOAD PUSH28 0xFFFFFFFFFFFFFFFFFFFFFFFFFFFFFFFFFFFFFFFFFFFFFFFFFFFFFFFF SWAP3 SWAP1 SWAP3 AND SWAP3 SWAP1 SWAP3 MUL ADD SWAP1 SSTORE PUSH4 0xFFFFFFFF DUP2 AND PUSH2 0x2759 DUP5 PUSH2 0x26F5 DUP8 PUSH2 0x2D0D JUMP JUMPDEST PUSH1 0xB DUP1 SLOAD PUSH28 0xFFFFFFFFFFFFFFFFFFFFFFFFFFFFFFFFFFFFFFFFFFFFFFFFFFFFFFFF SWAP3 SWAP1 SWAP3 AND SWAP3 SWAP1 SWAP3 MUL ADD SWAP1 SSTORE JUMPDEST PUSH1 0x9 DUP1 SLOAD PUSH32 0xFFFFFFFFFFFFFFFFFFFFFFFFFFFFFFFFFFFF0000000000000000000000000000 AND PUSH14 0xFFFFFFFFFFFFFFFFFFFFFFFFFFFF DUP9 DUP2 AND SWAP2 SWAP1 SWAP2 OR PUSH32 0xFFFFFFFF0000000000000000000000000000FFFFFFFFFFFFFFFFFFFFFFFFFFFF AND PUSH15 0x10000000000000000000000000000 DUP9 DUP4 AND DUP2 MUL SWAP2 SWAP1 SWAP2 OR PUSH28 0xFFFFFFFFFFFFFFFFFFFFFFFFFFFFFFFFFFFFFFFFFFFFFFFFFFFFFFFF AND PUSH29 0x100000000000000000000000000000000000000000000000000000000 PUSH4 0xFFFFFFFF DUP8 AND MUL OR SWAP3 DUP4 SWAP1 SSTORE PUSH1 0x40 DUP1 MLOAD DUP5 DUP5 AND DUP2 MSTORE SWAP2 SWAP1 SWAP4 DIV SWAP1 SWAP2 AND PUSH1 0x20 DUP3 ADD MSTORE DUP2 MLOAD PUSH32 0x1C411E9A96E071241C2F21F7726B17AE89E3CAB4C78BE50E062B03A9FFFBBAD1 SWAP3 SWAP2 DUP2 SWAP1 SUB SWAP1 SWAP2 ADD SWAP1 LOG1 POP POP POP POP POP POP JUMP JUMPDEST PUSH20 0xFFFFFFFFFFFFFFFFFFFFFFFFFFFFFFFFFFFFFFFF DUP1 DUP5 AND PUSH1 0x0 DUP2 DUP2 MSTORE PUSH1 0x3 PUSH1 0x20 SWAP1 DUP2 MSTORE PUSH1 0x40 DUP1 DUP4 KECCAK256 SWAP5 DUP8 AND DUP1 DUP5 MSTORE SWAP5 DUP3 MSTORE SWAP2 DUP3 SWAP1 KECCAK256 DUP6 SWAP1 SSTORE DUP2 MLOAD DUP6 DUP2 MSTORE SWAP2 MLOAD PUSH32 0x8C5BE1E5EBEC7D5BD14F71427D1E84F3DD0314C0F7B2291E5B200AC8C7C3B925 SWAP3 DUP2 SWAP1 SUB SWAP1 SWAP2 ADD SWAP1 LOG3 POP POP POP JUMP JUMPDEST PUSH20 0xFFFFFFFFFFFFFFFFFFFFFFFFFFFFFFFFFFFFFFFF DUP4 AND PUSH1 0x0 SWAP1 DUP2 MSTORE PUSH1 0x2 PUSH1 0x20 MSTORE PUSH1 0x40 SWAP1 KECCAK256 SLOAD PUSH2 0x292F SWAP1 DUP3 PUSH2 0x2568 JUMP JUMPDEST PUSH20 0xFFFFFFFFFFFFFFFFFFFFFFFFFFFFFFFFFFFFFFFF DUP1 DUP6 AND PUSH1 0x0 SWAP1 DUP2 MSTORE PUSH1 0x2 PUSH1 0x20 MSTORE PUSH1 0x40 DUP1 DUP3 KECCAK256 SWAP4 SWAP1 SWAP4 SSTORE SWAP1 DUP5 AND DUP2 MSTORE KECCAK256 SLOAD PUSH2 0x296B SWAP1 DUP3 PUSH2 0x2D72 JUMP JUMPDEST PUSH20 0xFFFFFFFFFFFFFFFFFFFFFFFFFFFFFFFFFFFFFFFF DUP1 DUP5 AND PUSH1 0x0 DUP2 DUP2 MSTORE PUSH1 0x2 PUSH1 0x20 SWAP1 DUP2 MSTORE PUSH1 0x40 SWAP2 DUP3 SWAP1 KECCAK256 SWAP5 SWAP1 SWAP5 SSTORE DUP1 MLOAD DUP6 DUP2 MSTORE SWAP1 MLOAD SWAP2 SWAP4 SWAP3 DUP8 AND SWAP3 PUSH32 0xDDF252AD1BE2C89B69C2B068FC378DAA952BA7F163C4A11628F55A4DF523B3EF SWAP3 SWAP2 DUP3 SWAP1 SUB ADD SWAP1 LOG3 POP POP POP JUMP JUMPDEST PUSH1 0x0 DUP1 PUSH1 0x6 PUSH1 0x0 SWAP1 SLOAD SWAP1 PUSH2 0x100 EXP SWAP1 DIV PUSH20 0xFFFFFFFFFFFFFFFFFFFFFFFFFFFFFFFFFFFFFFFF AND PUSH20 0xFFFFFFFFFFFFFFFFFFFFFFFFFFFFFFFFFFFFFFFF AND PUSH4 0x17E7E58 PUSH1 0x40 MLOAD DUP2 PUSH4 0xFFFFFFFF AND PUSH1 0xE0 SHL DUP2 MSTORE PUSH1 0x4 ADD PUSH1 0x20 PUSH1 0x40 MLOAD DUP1 DUP4 SUB DUP2 DUP7 DUP1 EXTCODESIZE ISZERO DUP1 ISZERO PUSH2 0x2A3F JUMPI PUSH1 0x0 DUP1 REVERT JUMPDEST POP GAS STATICCALL ISZERO DUP1 ISZERO PUSH2 0x2A53 JUMPI RETURNDATASIZE PUSH1 0x0 DUP1 RETURNDATACOPY RETURNDATASIZE PUSH1 0x0 REVERT JUMPDEST POP POP POP POP PUSH1 0x40 MLOAD RETURNDATASIZE PUSH1 0x20 DUP2 LT ISZERO PUSH2 0x2A69 JUMPI PUSH1 0x0 DUP1 REVERT JUMPDEST POP MLOAD PUSH1 0xC SLOAD PUSH20 0xFFFFFFFFFFFFFFFFFFFFFFFFFFFFFFFFFFFFFFFF DUP3 AND ISZERO DUP1 ISZERO SWAP5 POP SWAP2 SWAP3 POP SWAP1 PUSH2 0x2B2E JUMPI DUP1 ISZERO PUSH2 0x2B29 JUMPI PUSH1 0x0 PUSH2 0x2ABA PUSH2 0x129B PUSH14 0xFFFFFFFFFFFFFFFFFFFFFFFFFFFF DUP9 DUP2 AND SWAP1 DUP9 AND PUSH2 0x24E2 JUMP JUMPDEST SWAP1 POP PUSH1 0x0 PUSH2 0x2AC7 DUP4 PUSH2 0x2B42 JUMP JUMPDEST SWAP1 POP DUP1 DUP3 GT ISZERO PUSH2 0x2B26 JUMPI PUSH1 0x0 PUSH2 0x2AE9 PUSH2 0x2AE0 DUP5 DUP5 PUSH2 0x2568 JUMP JUMPDEST PUSH1 0x1 SLOAD SWAP1 PUSH2 0x24E2 JUMP JUMPDEST SWAP1 POP PUSH1 0x0 PUSH2 0x2B02 DUP4 PUSH2 0x2AFC DUP7 PUSH1 0x3 PUSH2 0x24E2 JUMP JUMPDEST SWAP1 PUSH2 0x2D72 JUMP JUMPDEST SWAP1 POP PUSH1 0x0 DUP2 DUP4 DUP2 PUSH2 0x2B0F JUMPI INVALID JUMPDEST DIV SWAP1 POP DUP1 ISZERO PUSH2 0x2B22 JUMPI PUSH2 0x2B22 DUP8 DUP3 PUSH2 0x2B94 JUMP JUMPDEST POP POP POP JUMPDEST POP POP JUMPDEST PUSH2 0x2B3A JUMP JUMPDEST DUP1 ISZERO PUSH2 0x2B3A JUMPI PUSH1 0x0 PUSH1 0xC SSTORE JUMPDEST POP POP SWAP3 SWAP2 POP POP JUMP JUMPDEST PUSH1 0x0 PUSH1 0x3 DUP3 GT ISZERO PUSH2 0x2B85 JUMPI POP DUP1 PUSH1 0x1 PUSH1 0x2 DUP3 DIV ADD JUMPDEST DUP2 DUP2 LT ISZERO PUSH2 0x2B7F JUMPI DUP1 SWAP2 POP PUSH1 0x2 DUP2 DUP3 DUP6 DUP2 PUSH2 0x2B6E JUMPI INVALID JUMPDEST DIV ADD DUP2 PUSH2 0x2B77 JUMPI INVALID JUMPDEST DIV SWAP1 POP PUSH2 0x2B57 JUMP JUMPDEST POP PUSH2 0x2B8F JUMP JUMPDEST DUP2 ISZERO PUSH2 0x2B8F JUMPI POP PUSH1 0x1 JUMPDEST SWAP2 SWAP1 POP JUMP JUMPDEST PUSH1 0x1 SLOAD PUSH2 0x2BA1 SWAP1 DUP3 PUSH2 0x2D72 JUMP JUMPDEST PUSH1 0x1 SSTORE PUSH20 0xFFFFFFFFFFFFFFFFFFFFFFFFFFFFFFFFFFFFFFFF DUP3 AND PUSH1 0x0 SWAP1 DUP2 MSTORE PUSH1 0x2 PUSH1 0x20 MSTORE PUSH1 0x40 SWAP1 KECCAK256 SLOAD PUSH2 0x2BD4 SWAP1 DUP3 PUSH2 0x2D72 JUMP JUMPDEST PUSH20 0xFFFFFFFFFFFFFFFFFFFFFFFFFFFFFFFFFFFFFFFF DUP4 AND PUSH1 0x0 DUP2 DUP2 MSTORE PUSH1 0x2 PUSH1 0x20 SWAP1 DUP2 MSTORE PUSH1 0x40 DUP1 DUP4 KECCAK256 SWAP5 SWAP1 SWAP5 SSTORE DUP4 MLOAD DUP6 DUP2 MSTORE SWAP4 MLOAD SWAP3 SWAP4 SWAP2 SWAP3 PUSH32 0xDDF252AD1BE2C89B69C2B068FC378DAA952BA7F163C4A11628F55A4DF523B3EF SWAP3 DUP2 SWAP1 SUB SWAP1 SWAP2 ADD SWAP1 LOG3 POP POP JUMP JUMPDEST PUSH1 0x0 DUP2 DUP4 LT PUSH2 0x2C48 JUMPI DUP2 PUSH2 0x2C4A JUMP JUMPDEST DUP3 JUMPDEST SWAP4 SWAP3 POP POP POP JUMP JUMPDEST CALLER SWAP1 JUMP JUMPDEST PUSH20 0xFFFFFFFFFFFFFFFFFFFFFFFFFFFFFFFFFFFFFFFF DUP3 AND PUSH1 0x0 SWAP1 DUP2 MSTORE PUSH1 0x2 PUSH1 0x20 MSTORE PUSH1 0x40 SWAP1 KECCAK256 SLOAD PUSH2 0x2C85 SWAP1 DUP3 PUSH2 0x2568 JUMP JUMPDEST PUSH20 0xFFFFFFFFFFFFFFFFFFFFFFFFFFFFFFFFFFFFFFFF DUP4 AND PUSH1 0x0 SWAP1 DUP2 MSTORE PUSH1 0x2 PUSH1 0x20 MSTORE PUSH1 0x40 SWAP1 KECCAK256 SSTORE PUSH1 0x1 SLOAD PUSH2 0x2CB8 SWAP1 DUP3 PUSH2 0x2568 JUMP JUMPDEST PUSH1 0x1 SSTORE PUSH1 0x40 DUP1 MLOAD DUP3 DUP2 MSTORE SWAP1 MLOAD PUSH1 0x0 SWAP2 PUSH20 0xFFFFFFFFFFFFFFFFFFFFFFFFFFFFFFFFFFFFFFFF DUP6 AND SWAP2 PUSH32 0xDDF252AD1BE2C89B69C2B068FC378DAA952BA7F163C4A11628F55A4DF523B3EF SWAP2 DUP2 SWAP1 SUB PUSH1 0x20 ADD SWAP1 LOG3 POP POP JUMP JUMPDEST PUSH14 0xFFFFFFFFFFFFFFFFFFFFFFFFFFFF AND PUSH15 0x10000000000000000000000000000 MUL SWAP1 JUMP JUMPDEST PUSH1 0x0 PUSH14 0xFFFFFFFFFFFFFFFFFFFFFFFFFFFF DUP3 AND PUSH28 0xFFFFFFFFFFFFFFFFFFFFFFFFFFFFFFFFFFFFFFFFFFFFFFFFFFFFFFFF DUP5 AND DUP2 PUSH2 0x2D6A JUMPI INVALID JUMPDEST DIV SWAP4 SWAP3 POP POP POP JUMP JUMPDEST DUP1 DUP3 ADD DUP3 DUP2 LT ISZERO PUSH2 0xE52 JUMPI PUSH1 0x40 DUP1 MLOAD PUSH32 0x8C379A000000000000000000000000000000000000000000000000000000000 DUP2 MSTORE PUSH1 0x20 PUSH1 0x4 DUP3 ADD MSTORE PUSH1 0x14 PUSH1 0x24 DUP3 ADD MSTORE PUSH32 0x64732D6D6174682D6164642D6F766572666C6F77000000000000000000000000 PUSH1 0x44 DUP3 ADD MSTORE SWAP1 MLOAD SWAP1 DUP2 SWAP1 SUB PUSH1 0x64 ADD SWAP1 REVERT INVALID 0x4F PUSH24 0x6E61626C653A206E6577206F776E65722069732074686520 PUSH27 0x65726F2061646472657373445045583A20494E5355464649434945 0x4E SLOAD 0x5F 0x4C 0x49 MLOAD SSTORE 0x49 DIFFICULTY 0x49 SLOAD MSIZE 0x5F 0x4D 0x49 0x4E SLOAD GASLIMIT DIFFICULTY DIFFICULTY POP GASLIMIT PC GASPRICE KECCAK256 0x49 0x4E MSTORE8 SSTORE CHAINID CHAINID 0x49 NUMBER 0x49 GASLIMIT 0x4E SLOAD 0x5F 0x4C 0x49 MLOAD SSTORE 0x49 DIFFICULTY 0x49 SLOAD MSIZE 0x5F TIMESTAMP SSTORE MSTORE 0x4E GASLIMIT DIFFICULTY DIFFICULTY PUSH6 0x63656E747261 PUSH13 0x697A6564205061737369766520 GASLIMIT PUSH25 0x6368616E67652050616972A264697066735822122055FB67F2 0xE0 0xE3 0xEF 0xE4 0xD9 PUSH27 0xCFB854DB10C7E7192AB8EE58BF853C2A36D01625949064736F6C63 NUMBER STOP SMOD DIV STOP CALLER DIFFICULTY PUSH6 0x63656E747261 PUSH13 0x697A6564205061737369766520 GASLIMIT PUSH25 0x6368616E67652050616972A26469706673582212203A0895D4 DUP8 PUSH1 0x8F PUSH3 0x9AAC41 0xBC SHL SUB 0xE1 XOR 0xC7 0x4D 0xD8 0xBC MULMOD 0xEF PUSH16 0xBA2053585E423E417864736F6C634300 SMOD DIV STOP CALLER "
        },
        "methodIdentifiers": {
          "pairFor(address,address,address)": "6d91c0e2",
          "sortTokens(address,address)": "544caa56"
        }
      }
    }
  }
}